{
  "contractName": "Associated_FC",
  "abi": [
    {
      "inputs": [
        {
          "internalType": "bytes32",
          "name": "_hashAssociatedName",
          "type": "bytes32"
        },
        {
          "internalType": "address",
          "name": "_associatedAddress",
          "type": "address"
        }
      ],
      "payable": true,
      "stateMutability": "payable",
      "type": "constructor"
    },
    {
      "anonymous": false,
      "inputs": [
        {
          "indexed": true,
          "internalType": "address",
          "name": "account",
          "type": "address"
        }
      ],
      "name": "AdminAdded",
      "type": "event"
    },
    {
      "anonymous": false,
      "inputs": [
        {
          "indexed": true,
          "internalType": "address",
          "name": "account",
          "type": "address"
        }
      ],
      "name": "AdminRemoved",
      "type": "event"
    },
    {
      "anonymous": false,
      "inputs": [
        {
          "indexed": true,
          "internalType": "address",
          "name": "account",
          "type": "address"
        }
      ],
      "name": "MngrAdded",
      "type": "event"
    },
    {
      "anonymous": false,
      "inputs": [
        {
          "indexed": true,
          "internalType": "address",
          "name": "account",
          "type": "address"
        }
      ],
      "name": "MngrRemoved",
      "type": "event"
    },
    {
      "anonymous": false,
      "inputs": [
        {
          "indexed": false,
          "internalType": "address",
          "name": "account",
          "type": "address"
        }
      ],
      "name": "Paused",
      "type": "event"
    },
    {
      "anonymous": false,
      "inputs": [
        {
          "indexed": false,
          "internalType": "address",
          "name": "account",
          "type": "address"
        }
      ],
      "name": "Unpaused",
      "type": "event"
    },
    {
      "constant": false,
      "inputs": [
        {
          "internalType": "address",
          "name": "account",
          "type": "address"
        }
      ],
      "name": "addAdmin",
      "outputs": [],
      "payable": false,
      "stateMutability": "nonpayable",
      "type": "function"
    },
    {
      "constant": false,
      "inputs": [
        {
          "internalType": "address",
          "name": "account",
          "type": "address"
        }
      ],
      "name": "addMngr",
      "outputs": [],
      "payable": false,
      "stateMutability": "nonpayable",
      "type": "function"
    },
    {
      "constant": true,
      "inputs": [
        {
          "internalType": "address",
          "name": "account",
          "type": "address"
        }
      ],
      "name": "isAdmin",
      "outputs": [
        {
          "internalType": "bool",
          "name": "",
          "type": "bool"
        }
      ],
      "payable": false,
      "stateMutability": "view",
      "type": "function"
    },
    {
      "constant": true,
      "inputs": [
        {
          "internalType": "address",
          "name": "account",
          "type": "address"
        }
      ],
      "name": "isMngr",
      "outputs": [
        {
          "internalType": "bool",
          "name": "",
          "type": "bool"
        }
      ],
      "payable": false,
      "stateMutability": "view",
      "type": "function"
    },
    {
      "constant": true,
      "inputs": [
        {
          "internalType": "address",
          "name": "",
          "type": "address"
        }
      ],
      "name": "listContainers",
      "outputs": [
        {
          "internalType": "uint256",
          "name": "seqId",
          "type": "uint256"
        },
        {
          "internalType": "bytes32",
          "name": "nameRef",
          "type": "bytes32"
        },
        {
          "internalType": "uint256",
          "name": "insideItems",
          "type": "uint256"
        },
        {
          "internalType": "uint256",
          "name": "exchangedItems",
          "type": "uint256"
        },
        {
          "internalType": "uint256",
          "name": "generatedPoints",
          "type": "uint256"
        },
        {
          "internalType": "uint256",
          "name": "txCount",
          "type": "uint256"
        },
        {
          "internalType": "uint256",
          "name": "pack1",
          "type": "uint256"
        },
        {
          "internalType": "uint256",
          "name": "pack2",
          "type": "uint256"
        },
        {
          "internalType": "uint256",
          "name": "pack3",
          "type": "uint256"
        },
        {
          "internalType": "uint256",
          "name": "startDate",
          "type": "uint256"
        },
        {
          "internalType": "uint256",
          "name": "stateDate",
          "type": "uint256"
        },
        {
          "internalType": "bool",
          "name": "isEnable",
          "type": "bool"
        },
        {
          "internalType": "address",
          "name": "associated",
          "type": "address"
        }
      ],
      "payable": false,
      "stateMutability": "view",
      "type": "function"
    },
    {
      "constant": false,
      "inputs": [],
      "name": "pause",
      "outputs": [],
      "payable": false,
      "stateMutability": "nonpayable",
      "type": "function"
    },
    {
      "constant": true,
      "inputs": [],
      "name": "paused",
      "outputs": [
        {
          "internalType": "bool",
          "name": "",
          "type": "bool"
        }
      ],
      "payable": false,
      "stateMutability": "view",
      "type": "function"
    },
    {
      "constant": false,
      "inputs": [],
      "name": "renounceAdmin",
      "outputs": [],
      "payable": false,
      "stateMutability": "nonpayable",
      "type": "function"
    },
    {
      "constant": false,
      "inputs": [],
      "name": "renounceMngr",
      "outputs": [],
      "payable": false,
      "stateMutability": "nonpayable",
      "type": "function"
    },
    {
      "constant": false,
      "inputs": [],
      "name": "unpause",
      "outputs": [],
      "payable": false,
      "stateMutability": "nonpayable",
      "type": "function"
    },
    {
      "constant": true,
      "inputs": [],
      "name": "getHashAssociatedName",
      "outputs": [
        {
          "internalType": "bytes32",
          "name": "",
          "type": "bytes32"
        }
      ],
      "payable": false,
      "stateMutability": "view",
      "type": "function"
    },
    {
      "constant": true,
      "inputs": [],
      "name": "getAssociatedInfo",
      "outputs": [
        {
          "internalType": "uint256",
          "name": "_generatedPoints",
          "type": "uint256"
        },
        {
          "internalType": "uint256",
          "name": "_exchangedPoints",
          "type": "uint256"
        },
        {
          "internalType": "uint256",
          "name": "_exchangedItems",
          "type": "uint256"
        },
        {
          "internalType": "uint256",
          "name": "_clearedPoints",
          "type": "uint256"
        },
        {
          "internalType": "uint256",
          "name": "_pack1",
          "type": "uint256"
        },
        {
          "internalType": "uint256",
          "name": "_pack2",
          "type": "uint256"
        },
        {
          "internalType": "uint256",
          "name": "_pack3",
          "type": "uint256"
        }
      ],
      "payable": false,
      "stateMutability": "view",
      "type": "function"
    },
    {
      "constant": true,
      "inputs": [],
      "name": "getGeneratedPoints",
      "outputs": [
        {
          "internalType": "uint256",
          "name": "",
          "type": "uint256"
        }
      ],
      "payable": false,
      "stateMutability": "view",
      "type": "function"
    },
    {
      "constant": true,
      "inputs": [],
      "name": "getNumItemsbyType",
      "outputs": [
        {
          "internalType": "uint256",
          "name": "",
          "type": "uint256"
        },
        {
          "internalType": "uint256",
          "name": "",
          "type": "uint256"
        },
        {
          "internalType": "uint256",
          "name": "",
          "type": "uint256"
        }
      ],
      "payable": false,
      "stateMutability": "view",
      "type": "function"
    },
    {
      "constant": false,
      "inputs": [
        {
          "internalType": "bytes32",
          "name": "_nameRef",
          "type": "bytes32"
        },
        {
          "internalType": "address",
          "name": "_container_address",
          "type": "address"
        }
      ],
      "name": "addContainer",
      "outputs": [],
      "payable": false,
      "stateMutability": "nonpayable",
      "type": "function"
    },
    {
      "constant": true,
      "inputs": [],
      "name": "getContainerList",
      "outputs": [
        {
          "internalType": "address[]",
          "name": "",
          "type": "address[]"
        }
      ],
      "payable": false,
      "stateMutability": "view",
      "type": "function"
    },
    {
      "constant": false,
      "inputs": [
        {
          "internalType": "bytes32",
          "name": "_userHashcode",
          "type": "bytes32"
        },
        {
          "internalType": "bytes32",
          "name": "_hashedSecret",
          "type": "bytes32"
        },
        {
          "internalType": "uint256",
          "name": "_amount",
          "type": "uint256"
        }
      ],
      "name": "exchangePoints",
      "outputs": [
        {
          "internalType": "bool",
          "name": "",
          "type": "bool"
        }
      ],
      "payable": false,
      "stateMutability": "nonpayable",
      "type": "function"
    },
    {
      "constant": false,
      "inputs": [
        {
          "internalType": "uint256",
          "name": "_amount",
          "type": "uint256"
        }
      ],
      "name": "clearPoints",
      "outputs": [
        {
          "internalType": "bool",
          "name": "",
          "type": "bool"
        }
      ],
      "payable": false,
      "stateMutability": "nonpayable",
      "type": "function"
    },
    {
      "constant": true,
      "inputs": [
        {
          "internalType": "bytes32",
          "name": "_userHashcode",
          "type": "bytes32"
        }
      ],
      "name": "getUserBalance",
      "outputs": [
        {
          "internalType": "uint256",
          "name": "",
          "type": "uint256"
        }
      ],
      "payable": false,
      "stateMutability": "view",
      "type": "function"
    },
    {
      "constant": false,
      "inputs": [
        {
          "internalType": "uint256",
          "name": "_amount",
          "type": "uint256"
        },
        {
          "internalType": "address",
          "name": "_container",
          "type": "address"
        }
      ],
      "name": "updateAssociatedPoints",
      "outputs": [],
      "payable": false,
      "stateMutability": "nonpayable",
      "type": "function"
    },
    {
      "constant": false,
      "inputs": [
        {
          "internalType": "bytes32",
          "name": "_hashUserName",
          "type": "bytes32"
        },
        {
          "internalType": "bytes32",
          "name": "_hashedSecret",
          "type": "bytes32"
        },
        {
          "internalType": "uint256",
          "name": "_pack1",
          "type": "uint256"
        },
        {
          "internalType": "uint256",
          "name": "_pack2",
          "type": "uint256"
        },
        {
          "internalType": "uint256",
          "name": "_pack3",
          "type": "uint256"
        }
      ],
      "name": "packagingCollection",
      "outputs": [
        {
          "internalType": "bool",
          "name": "",
          "type": "bool"
        }
      ],
      "payable": false,
      "stateMutability": "nonpayable",
      "type": "function"
    },
    {
      "constant": false,
      "inputs": [
        {
          "internalType": "address",
          "name": "_container",
          "type": "address"
        }
      ],
      "name": "enableContainer",
      "outputs": [],
      "payable": false,
      "stateMutability": "nonpayable",
      "type": "function"
    },
    {
      "constant": true,
      "inputs": [
        {
          "internalType": "address",
          "name": "_container",
          "type": "address"
        }
      ],
      "name": "isEnableContainer",
      "outputs": [
        {
          "internalType": "bool",
          "name": "",
          "type": "bool"
        }
      ],
      "payable": false,
      "stateMutability": "view",
      "type": "function"
    },
    {
      "constant": false,
      "inputs": [
        {
          "internalType": "address",
          "name": "_container",
          "type": "address"
        }
      ],
      "name": "disableContainer",
      "outputs": [],
      "payable": false,
      "stateMutability": "nonpayable",
      "type": "function"
    },
    {
      "constant": false,
      "inputs": [
        {
          "internalType": "bytes32",
          "name": "_hashAssociatedName",
          "type": "bytes32"
        },
        {
          "internalType": "bytes32",
          "name": "_QR",
          "type": "bytes32"
        },
        {
          "internalType": "address",
          "name": "_associated",
          "type": "address"
        },
        {
          "internalType": "bytes32",
          "name": "_nameRef",
          "type": "bytes32"
        },
        {
          "internalType": "uint256",
          "name": "_item_1",
          "type": "uint256"
        },
        {
          "internalType": "uint256",
          "name": "_item_2",
          "type": "uint256"
        },
        {
          "internalType": "uint256",
          "name": "_item_3",
          "type": "uint256"
        }
      ],
      "name": "addRecycledBag",
      "outputs": [
        {
          "internalType": "bool",
          "name": "",
          "type": "bool"
        }
      ],
      "payable": false,
      "stateMutability": "nonpayable",
      "type": "function"
    }
  ],
  "bytecode": "0x608060405260405162001dec38038062001dec833981810160405260408110156200002957600080fd5b50805160209091015162000058620000496001600160e01b03620000c916565b6001600160e01b03620000cd16565b6001805460ff1916905562000088620000796001600160e01b03620000c916565b6001600160e01b036200011f16565b600b829055600d8054336001600160a01b031991821617909155601080549091166001600160a01b038316179055620000c18162000171565b5050620002d0565b3390565b620000e88160006200020560201b620018ff1790919060201c565b6040516001600160a01b038216907f2db8f49e9d09fbba330ecc87b42d650f16bdabefeab9a35300dbf34bd8d4ec3190600090a250565b6200013a8160026200020560201b620018ff1790919060201c565b6040516001600160a01b038216907f44d6d25963f097ad14f29f06854a01f575648a1ef82f30e562ccd3889717e33990600090a250565b62000197620001886001600160e01b03620000c916565b6001600160e01b036200022a16565b620001ee576040517f08c379a000000000000000000000000000000000000000000000000000000000815260040180806020018281038252602e81526020018062001dbe602e913960400191505060405180910390fd5b62000202816001600160e01b036200011f16565b50565b6001600160a01b0316600090815260209190915260409020805460ff19166001179055565b6000620002478260026200024d60201b620016421790919060201c565b92915050565b60006001600160a01b038216620002b0576040517f08c379a000000000000000000000000000000000000000000000000000000000815260040180806020018281038252602281526020018062001d9c6022913960400191505060405180910390fd5b506001600160a01b03166000908152602091909152604090205460ff1690565b611abc80620002e06000396000f3fe608060405234801561001057600080fd5b50600436106101735760003560e01c806381530c04116100de578063acb2777d11610097578063c2fefe8311610071578063c2fefe83146104b8578063e6afb898146104f8578063ef91492a14610500578063f6216f031461052657610173565b8063acb2777d1461043a578063b6e9c2ac14610466578063bc91b4cf1461048357610173565b806381530c04146103a45780638456cb59146103cd5780638bad0c0a146103d55780639abb2195146103dd578063a2ed01dc14610403578063a5ff72b61461041d57610173565b8063649b6e3d11610130578063649b6e3d146102d85780636ffc3903146102fe578063704802751461030657806374fdd53c1461032c5780637af17ee91461035857806380d22fc61461037e57610173565b80630b5a06261461017857806324d7806c1461020e5780633f4ba83a1461024857806348e5235c146102525780635c975abb146102aa57806361e4258e146102b2575b600080fd5b61019e6004803603602081101561018e57600080fd5b50356001600160a01b0316610570565b604080519d8e5260208e019c909c528c8c019a909a5260608c019890985260808b019690965260a08a019490945260c089019290925260e088015261010087015261012086015261014085015215156101608401526001600160a01b031661018083015251908190036101a00190f35b6102346004803603602081101561022457600080fd5b50356001600160a01b03166105e2565b604080519115158252519081900360200190f35b6102506105fb565b005b61025a6106e4565b60408051602080825283518183015283519192839290830191858101910280838360005b8381101561029657818101518382015260200161027e565b505050509050019250505060405180910390f35b610234610746565b610234600480360360208110156102c857600080fd5b50356001600160a01b031661074f565b610234600480360360208110156102ee57600080fd5b50356001600160a01b03166107ce565b6102506107e0565b6102506004803603602081101561031c57600080fd5b50356001600160a01b03166107f2565b6102506004803603604081101561034257600080fd5b50803590602001356001600160a01b0316610849565b6102506004803603602081101561036e57600080fd5b50356001600160a01b03166108c6565b6102506004803603602081101561039457600080fd5b50356001600160a01b03166109af565b610234600480360360608110156103ba57600080fd5b50803590602081013590604001356109fe565b610250610b48565b610250610c0e565b610250600480360360208110156103f357600080fd5b50356001600160a01b0316610c1e565b61040b610d03565b60408051918252519081900360200190f35b6102346004803603602081101561043357600080fd5b5035610d09565b6102506004803603604081101561045057600080fd5b50803590602001356001600160a01b0316610ddc565b61040b6004803603602081101561047c57600080fd5b50356110e2565b610234600480360360a081101561049957600080fd5b5080359060208101359060408101359060608101359060800135611160565b6104c0611453565b604080519788526020880196909652868601949094526060860192909252608085015260a084015260c0830152519081900360e00190f35b61040b611471565b610508611477565b60408051938452602084019290925282820152519081900360600190f35b610234600480360360e081101561053c57600080fd5b508035906020810135906001600160a01b036040820135169060608101359060808101359060a08101359060c00135611485565b600e60205260009081526040902080546001820154600283015460038401546004850154600586015460068701546007880154600889015460098a0154600a8b0154600b909b0154999a98999798969795969495939492939192909160ff81169061010090046001600160a01b03168d565b60006105f560028363ffffffff61164216565b92915050565b61060b6106066116a9565b6107ce565b6106465760405162461bcd60e51b815260040180806020018281038252602c815260200180611a0c602c913960400191505060405180910390fd5b60015460ff16610694576040805162461bcd60e51b815260206004820152601460248201527314185d5cd8589b194e881b9bdd081c185d5cd95960621b604482015290519081900360640190fd5b6001805460ff191690557f5db9ee0a495bf2e6ff9c91a7834c1ba4fdd244a5e8aa4e537bd38aeae4b073aa6106c76116a9565b604080516001600160a01b039092168252519081900360200190a1565b6060600f80548060200260200160405190810160405280929190818152602001828054801561073c57602002820191906000526020600020905b81546001600160a01b0316815260019091019060200180831161071e575b5050505050905090565b60015460ff1690565b60006001600160a01b0382166107ac576040805162461bcd60e51b815260206004820152601e60248201527f436f6e7461696e65722061646472657373206973206e6f742076616c69640000604482015290519081900360640190fd5b506001600160a01b03166000908152600e60205260409020600b015460ff1690565b60006105f5818363ffffffff61164216565b6107f06107eb6116a9565b6116ad565b565b6108026107fd6116a9565b6105e2565b61083d5760405162461bcd60e51b815260040180806020018281038252602e815260200180611a5a602e913960400191505060405180910390fd5b610846816116f5565b50565b6001600160a01b0381166000908152600e60205260409020600b015460ff166108b9576040805162461bcd60e51b815260206004820152601860248201527f436f6e7461696e6572206973206e6f7420416374697665210000000000000000604482015290519081900360640190fd5b6108c28261173d565b5050565b60015460ff1615610911576040805162461bcd60e51b815260206004820152601060248201526f14185d5cd8589b194e881c185d5cd95960821b604482015290519081900360640190fd5b6001600160a01b0381166000908152600e60205260409020600b015460ff1615610982576040805162461bcd60e51b815260206004820152601860248201527f436f6e7461696e657220616c726561647920656e61626c650000000000000000604482015290519081900360640190fd5b6001600160a01b03166000908152600e6020526040902042600a820155600b01805460ff19166001179055565b6109ba6106066116a9565b6109f55760405162461bcd60e51b815260040180806020018281038252602c815260200180611a0c602c913960400191505060405180910390fd5b61084681611748565b6000610a0b6107fd6116a9565b610a465760405162461bcd60e51b815260040180806020018281038252602e815260200180611a5a602e913960400191505060405180910390fd5b60015460ff1615610a91576040805162461bcd60e51b815260206004820152601060248201526f14185d5cd8589b194e881c185d5cd95960821b604482015290519081900360640190fd5b600d54600b54604080516303a6f85b60e51b81526004810192909252602482018790526044820185905260648201869052516000926001600160a01b0316916374df0b6091608480830192602092919082900301818787803b158015610af657600080fd5b505af1158015610b0a573d6000803e3d6000fd5b505050506040513d6020811015610b2057600080fd5b505190508015610b3b57505060058054820190556001610b41565b60009150505b9392505050565b610b536106066116a9565b610b8e5760405162461bcd60e51b815260040180806020018281038252602c815260200180611a0c602c913960400191505060405180910390fd5b60015460ff1615610bd9576040805162461bcd60e51b815260206004820152601060248201526f14185d5cd8589b194e881c185d5cd95960821b604482015290519081900360640190fd5b6001805460ff1916811790557f62e78cea01bee320cd4e420270b5ea74000d11b0c9f74754ebdbfc544b05a2586106c76116a9565b6107f0610c196116a9565b611790565b60015460ff1615610c69576040805162461bcd60e51b815260206004820152601060248201526f14185d5cd8589b194e881c185d5cd95960821b604482015290519081900360640190fd5b6001600160a01b0381166000908152600e60205260409020600b015460ff16610cd9576040805162461bcd60e51b815260206004820152601760248201527f436f6e7461696e6572206973206e6f7420656e61626c65000000000000000000604482015290519081900360640190fd5b6001600160a01b03166000908152600e6020526040902042600a820155600b01805460ff19169055565b60035490565b6000610d166106066116a9565b610d515760405162461bcd60e51b815260040180806020018281038252602c815260200180611a0c602c913960400191505060405180910390fd5b60015460ff1615610d9c576040805162461bcd60e51b815260206004820152601060248201526f14185d5cd8589b194e881c185d5cd95960821b604482015290519081900360640190fd5b610dc9826040518060600160405280602e8152602001611948602e9139600554919063ffffffff6117d816565b6005555060068054820190556001919050565b610de76107fd6116a9565b610e225760405162461bcd60e51b815260040180806020018281038252602e815260200180611a5a602e913960400191505060405180910390fd5b60015460ff1615610e6d576040805162461bcd60e51b815260206004820152601060248201526f14185d5cd8589b194e881c185d5cd95960821b604482015290519081900360640190fd5b6001600160a01b038116610eb25760405162461bcd60e51b81526004018080602001828103825260298152602001806119c26029913960400191505060405180910390fd5b6001600160a01b0381166000908152600e602052604090205415610f16576040805162461bcd60e51b81526020600482015260166024820152754164647265737320616c72656164792065786973742160501b604482015290519081900360640190fd5b600c60008154809291906001019190505550604051806101a00160405280600c54815260200183815260200160008152602001600081526020016000815260200160008152602001600081526020016000815260200160008152602001428152602001428152602001600115158152602001601060009054906101000a90046001600160a01b03166001600160a01b0316815250600e6000836001600160a01b03166001600160a01b03168152602001908152602001600020600082015181600001556020820151816001015560408201518160020155606082015181600301556080820151816004015560a0820151816005015560c0820151816006015560e082015181600701556101008201518160080155610120820151816009015561014082015181600a015561016082015181600b0160006101000a81548160ff02191690831515021790555061018082015181600b0160016101000a8154816001600160a01b0302191690836001600160a01b03160217905550905050600f8190806001815401808255809150509060018203906000526020600020016000909192909190916101000a8154816001600160a01b0302191690836001600160a01b03160217905550505050565b600d546040805163363f8aa160e11b81526004810184905290516000926001600160a01b031691636c7f1542916024808301926020929190829003018186803b15801561112e57600080fd5b505afa158015611142573d6000803e3d6000fd5b505050506040513d602081101561115857600080fd5b505192915050565b336000908152600e60205260408120600901546111ae5760405162461bcd60e51b81526004018080602001828103825260238152602001806119256023913960400191505060405180910390fd5b336000908152600e60205260409020600b015460ff166111ff5760405162461bcd60e51b815260040180806020018281038252602481526020018061199e6024913960400191505060405180910390fd5b60015460ff161561124a576040805162461bcd60e51b815260206004820152601060248201526f14185d5cd8589b194e881c185d5cd95960821b604482015290519081900360640190fd5b600084840183018061128d5760405162461bcd60e51b81526004018080602001828103825260288152602001806119766028913960400191505060405180910390fd5b336000908152600e602052604090206005810180546001019055600281018054830190556003810180548301905560068101805488019055600781018054870190556008018054850190556112e386868661186f565b6112f0848688010161188d565b600d546040805163e055aeeb60e01b815260048101899052602481018890526044810187905290516001600160a01b039092169163e055aeeb91606480820192602092909190829003018186803b15801561134a57600080fd5b505afa15801561135e573d6000803e3d6000fd5b505050506040513d602081101561137457600080fd5b5051600d54600b546040805163ee0c96c560e01b81526004810192909252602482018c905260448201849052606482018b9052519294506000926001600160a01b039092169163ee0c96c59160848082019260209290919082900301818787803b1580156113e157600080fd5b505af11580156113f5573d6000803e3d6000fd5b505050506040513d602081101561140b57600080fd5b50519050801561144257336000908152600e602052604090206004018054840190556114368361173d565b6001935050505061144a565b600093505050505b95945050505050565b60035460055460045460065460075460085460095490919293949596565b600b5490565b600754600854600954909192565b336000908152600e60205260408120600901546114d35760405162461bcd60e51b81526004018080602001828103825260238152602001806119256023913960400191505060405180910390fd5b336000908152600e60205260409020600b015460ff166115245760405162461bcd60e51b815260040180806020018281038252602481526020018061199e6024913960400191505060405180910390fd5b600d54600b54604080516308932f5960e31b81526004810192909252602482018a90526001600160a01b038981166044840152606483018990526084830188905260a4830187905260c48301869052905160009391909116916344997ac89160e480830192602092919082900301818787803b1580156115a357600080fd5b505af11580156115b7573d6000803e3d6000fd5b505050506040513d60208110156115cd57600080fd5b50519050801561163157336000908152600e6020526040902060068101546007820154600890920154611600929061186f565b5050336000908152600e60205260408120600681018290556007810182905560088101829055600201556001611637565b60009150505b979650505050505050565b60006001600160a01b0382166116895760405162461bcd60e51b8152600401808060200182810382526022815260200180611a386022913960400191505060405180910390fd5b506001600160a01b03166000908152602091909152604090205460ff1690565b3390565b6116be60008263ffffffff61189816565b6040516001600160a01b038216907fc7c063934ec148f1763101df56fc7d2b7c439d07ce6e340e8dbf55ff15cabe9890600090a250565b61170660028263ffffffff6118ff16565b6040516001600160a01b038216907f44d6d25963f097ad14f29f06854a01f575648a1ef82f30e562ccd3889717e33990600090a250565b600380549091019055565b61175960008263ffffffff6118ff16565b6040516001600160a01b038216907f2db8f49e9d09fbba330ecc87b42d650f16bdabefeab9a35300dbf34bd8d4ec3190600090a250565b6117a160028263ffffffff61189816565b6040516001600160a01b038216907fa3b62bc36326052d97ea62d63c3d60308ed4c3ea8ac079dd8499f1e9c4f80c0f90600090a250565b600081848411156118675760405162461bcd60e51b81526004018080602001828103825283818151815260200191508051906020019080838360005b8381101561182c578181015183820152602001611814565b50505050905090810190601f1680156118595780820380516001836020036101000a031916815260200191505b509250505060405180910390fd5b505050900390565b60078054909301909255600880549091019055600980549091019055565b600480549091019055565b6118a28282611642565b6118dd5760405162461bcd60e51b81526004018080602001828103825260218152602001806119eb6021913960400191505060405180910390fd5b6001600160a01b0316600090815260209190915260409020805460ff19169055565b6001600160a01b0316600090815260209190915260409020805460ff1916600117905556fe5468652073656e646572206973206e6f7420612076616c696420636f6e7461696e6572636c65616e6564506f696e74733a207472616e7366657220616d6f756e7420657863656564732062616c616e63654e756d626572206f66206974656d73206973206e6f742067726561746572207468616e207a65726f5468652073656e646572206973206e6f74206120636f6e7461696e657220656e61626c65436f6e7461696e6572204e616d6520616e64204164647265732073686f756c642062652066696c6c21526f6c65733a206163636f756e7420646f6573206e6f74206861766520726f6c654d6e6772526f6c653a2063616c6c657220646f6573206e6f74206861766520746865204d6e677220726f6c65526f6c65733a206163636f756e7420697320746865207a65726f206164647265737341646d696e526f6c653a2063616c6c657220646f6573206e6f742068617665207468652041646d696e20726f6c65a265627a7a72315820eff36032b2abf226ec3533bbf41736f9aae6149b80b52b8fb06476fcfcc28fc364736f6c634300050c0032526f6c65733a206163636f756e7420697320746865207a65726f206164647265737341646d696e526f6c653a2063616c6c657220646f6573206e6f742068617665207468652041646d696e20726f6c65",
  "source": "pragma solidity ^0.5.1;\n\nimport \"./AdminRole.sol\";\nimport \"./MngrRole.sol\";\n//import \"./Ownable.sol\";\nimport \"./PausableMngr.sol\";\nimport \"./Deres.sol\";\n\n\ncontract Associated_FC is PausableMngr, AdminRole {\n\n    using SafeMath for uint;\n\n\n\t//Variables Globales\n\n    uint generatedPoints; //Puntos generados\n    uint exchangedItems; //Items generados\n\tuint exchangedPoints; //Puntos dados en el contenedor\n    uint clearedPoints;   //Puntos Liquidados por Ecoembes, en caso que se diera\n    uint pack1;\n\tuint pack2;\n\tuint pack3;\n\n    bool status;\t      //Estado del Asociado\n\tbytes32 hashAssociatedName;\n\tuint counterContainer; //contador de Contenedores\n    \n\n    Deres deres;// Referencia del contrato principal, para conocer su Address\n    mapping (address => Container) public listContainers; //*  Lista de contenedores por Asociado\n    address[] internal containerList;\n    address internal associatedAddress;\n\n\n   constructor (bytes32 _hashAssociatedName, address _associatedAddress ) public payable {\n\t   //_owner = _associatedAddress;//Addres del Asociado\n\t   hashAssociatedName = _hashAssociatedName;//Nombre del Asociado Hasheado\n       deres= Deres(msg.sender); //Direccin del contrato Principal\n       associatedAddress = _associatedAddress;\n       addAdmin(_associatedAddress);       \n    }\n\n/*\n    function getOwner() public view returns (address){\n        return msg.sender;\n    }\n*/\n/*\n    function isOwner() public view returns (bool){\n        return (msg.sender == _owner);\n    }\n    */\n\n    function getHashAssociatedName() public view returns (bytes32) {\n\t\treturn hashAssociatedName;\n\t}\n\n\t/*@dev Obtener los Puntos Generados por Asociado, Puntos Canjeados de usuarios por parte del Asociado \n\t* Return, uint\n\t*/    \n    function getAssociatedInfo() public view returns (uint _generatedPoints, uint _exchangedPoints, uint _exchangedItems, uint _clearedPoints, uint _pack1, uint _pack2, uint _pack3) {\n\t\treturn (generatedPoints, exchangedPoints, exchangedItems, clearedPoints, pack1, pack2, pack3 );\n\t}\n\n    function getGeneratedPoints() public view returns (uint) {\n\t\treturn generatedPoints;\n\t}\n\n\t/*@dev Actualizar los Puntos Generados por Asociado\n\t* Return, uint\n\t*/\n    function updateGeneratedPoints(uint points) internal  {\n\t\tgeneratedPoints += points;\n\t}\n\n    function updateExchangeItems(uint items) internal  {\n\t\texchangedItems += items;\n\t}\n\n/*@dev updateRecycItems, actualiza el nmero de Elementos reciclados en el Container\n\t* Return, uint\n\t*/\n\n    //Todo update numero de elementos\n    function updateRecycItems(uint _pack1, uint _pack2, uint _pack3) internal  {\n\t\tpack1 += _pack1;\n        pack2 += _pack2;\n        pack3 += _pack3;\n\t}\n\n    /*@dev getNumItemsbyType, Obtener el numero de Items Reciclados por tipo\n\t* Return, uint, uint, uint \n\t*/\n\n\n\tfunction getNumItemsbyType() public view returns (uint, uint, uint){\n\n\t\treturn (pack1, pack2, pack3) ;\n\n\t}\n\n\t/*@dev Obtener el numero de contenedores por Asociado\n\t* Return, uint\n\t*/\n\n/*\n\tfunction getNumContainers() public view returns (uint){\n\t\treturn counterContainer;\n\n\t}\n*/\n\n    /*@dev Aadir Container al asociado\n    * @param _hashName,   Identificador del contenedor Hasheado.\n    * @param _containerAddress, Address de Ethereum del contenedor, parametro que vendria desde el Frontend\n    * Modificador, whenNotPaused del contrato Pausable, en caso de Pausable, no se puede ejecutar esta funcin.\n    */\n\tfunction addContainer(bytes32 _nameRef, address _container_address) public onlyAdmin whenNotPaused  (){\n\n\t\t//_id y container addres no pueden estar vacias a la hora de crear contenerdor.\n\t    require(\n            bytes32(_nameRef).length > 0 && _container_address != address(0),\n            \"Container Name and Addres should be fill!\"\n\t        );\n\n        //El address del contenedor ya esta en la lista\n         require(!(listContainers[_container_address].seqId > 0), \"Address already exist!\");\n\n\n        //Inicializa el QR de la bolsa del contenedor\n        //la App del contenedor debe de colocar este QR a la primera bolsa\n        //bytes32 _InitialQR = bytes32(uint256(keccak256(_container)));\n\n\t\tcounterContainer++;\n\n        //Inicializa la estructura del Contenedor y lo aade al ArrayList\n\n        listContainers[_container_address] = Container(counterContainer, _nameRef, 0, 0, 0, 0, 0, 0, 0, now, now, true, associatedAddress);\n        containerList.push(_container_address);\n\n\n\t}\n\n    /*@dev getContainerList,  Devuelve la lista de Contenedores para un asociado\n\t* Return, address[]\n\t*/\n\n    function getContainerList() public view returns (address[] memory) {\n\t\treturn containerList;\n\t}\n\n    /*@dev exchangePoints,  La App de Canjear Puntos llamara a esta funcion desde la Applicacion\n\t* Return, uint\n\t*/\n\n\tfunction exchangePoints(bytes32 _userHashcode, bytes32 _hashedSecret, uint _amount ) public onlyAdmin whenNotPaused returns (bool){\n\n        bool result = deres.exchangePoints(hashAssociatedName, _userHashcode, _amount, _hashedSecret); //El contrato es quien llama al exchange del principal. Esto permite aislar mejor las operaciones del asociado conj las operaciones del contrato principal\n        if (result){\n            \n            exchangedPoints += _amount;\n            return true;\n        }\n        return false;\n    }\n\n    /*@dev clearPoints,  En caso de que el Asociado necesitara canjear Puntos con Ecoembes\n\t* Return, bool\n\t*/\n    function clearPoints(uint _amount ) public onlyMngr whenNotPaused returns (bool){\n\n        exchangedPoints = exchangedPoints.sub(_amount, \"cleanedPoints: transfer amount exceeds balance\");\n        clearedPoints += _amount;\n\n        return true;\n    }\n\n\n\n    /*@dev getUserBalance, La aplicacione del contenedor llamar a esta funcin\n    * para conocer los puntos de usuaario\n\t* Return, uint\n\t*/\n    function getUserBalance( bytes32 _userHashcode)public view returns (uint256) {\n\n\t\t return deres.balanceOf(_userHashcode);\n\n\t}\n\n    //Llamada desde el Frontend del Contenedor  ???\n    function updateAssociatedPoints(uint _amount, address _container)public   {\n\n        require (listContainers[_container].isEnable, \"Container is not Active!\");\n        updateGeneratedPoints(_amount);\n\n\n\t}\n\n\n\t//----------------------------------------------------------------------------------------------------\n    //------------------    CONTENEDOR   -----------------------------------------------------------------\n    //----------------------------------------------------------------------------------------------------\n\n    //Modelo de Datos de un Contenedor\n    struct Container {\n        uint seqId;\n\t\tbytes32 nameRef;\n        uint insideItems;\n        uint exchangedItems;\n        uint generatedPoints;\n        uint txCount;\n        uint pack1;\n        uint pack2;\n        uint pack3;\n        uint startDate;\n        uint stateDate;\n        bool isEnable;\n        address associated;\n       // bytes32 currentQRBag;// Para que el usuario pudiera tener visualizacion de los residuos que ha introducido \n                             // es necesario que se le pase al ususario este QR\n                             //Mejor que el QR se gestione en el Contenedor\n\t}\n\n    /*\n      * @dev Validar que el sender este registrado como un contenedor\n      */\n    modifier onlyContainerEnable() {\n        require(listContainers[msg.sender].startDate > 0, \"The sender is not a valid container\");\n        require(listContainers[msg.sender].isEnable, \"The sender is not a container enable\");\n        _;\n    }\n\n\n    /*\n      * @dev Funcin para la asignacin de puntos por la recogida de envases\n      *\n      * @param _hashUserName\n      * @param _hashedSecret\n      * @param _pack1\n      * @param _pack2\n      * @param _pack3\n\n      */\n\n     //JM: He quitado como parametro el uint _points por _amount, seria el numero total de elementos reciclados\n    function packagingCollection(bytes32 _hashUserName,  bytes32 _hashedSecret, uint _pack1, uint _pack2, uint _pack3)\n    public onlyContainerEnable whenNotPaused returns (bool){\n\n        //* Actualiza contenedor\n        uint points;\n        uint ammount = _pack1 + _pack2 + _pack3;\n\n        require (ammount > 0, \"Number of items is not greater than zero\");\n        //Con el modificador de onlyContainerEnable es suficiente     require ((listContainers[msg.sender].seqId)>0, \"Container not stored in the associated\");\n\n        listContainers[msg.sender].txCount += 1;\n        listContainers[msg.sender].insideItems += ammount;\n        listContainers[msg.sender].exchangedItems += ammount;\n\n        //Actualiza los diferentes tipos de residuos\n        listContainers[msg.sender].pack1 += _pack1;\n        listContainers[msg.sender].pack2 += _pack2;\n        listContainers[msg.sender].pack3 += _pack3;\n\n        updateRecycItems(_pack1, _pack2, _pack3);\n        updateExchangeItems(_pack1 + _pack2 + _pack3);\n\n        //Calcular puntos, donde se calcula el valor por punto, en Principal.\n        points = deres.calculatePoints(_pack1, _pack2, _pack3);\n\n        //TODO enn la aplicacion del contenedor tendria que pasarle el QR de la bolsa al usuario/\n        //actualiza los Puntos del Usuario:\n        bool result = deres.updateUserBalance(hashAssociatedName, _hashUserName, points, _hashedSecret);\n\t\tif (result){\n            listContainers[msg.sender].generatedPoints += points;\n            updateGeneratedPoints(points);\n            return true;\n        }else {\n             return false;\n        }\n       \n    }\n\n \n    /*\n      * @dev enableContainer: Funcin para habilitar un contenedor\n      * \n      * @param _container Address del container \n      */\n    function enableContainer(address _container) public  whenNotPaused {\n        require (!(listContainers[_container].isEnable), \"Container already enable\");\n\n        listContainers[_container].stateDate = now;\n        listContainers[_container].isEnable = true;\n    }\n\n    /*\n      * @dev isEnableContainer: Valida si un contenedor est activo\n      * \n      * @param _container Address del contenedor\n      * \n      * @return bool\n      */    \n    function isEnableContainer(address _container) public view returns (bool) {\n        require( _container != address(0), \"Container address is not valid\");\n        \n        return listContainers[_container].isEnable;\n    }\n\n    function disableContainer(address _container) public  whenNotPaused {\n        require (listContainers[_container].isEnable, \"Container is not enable\");\n        listContainers[_container].stateDate = now;\n        listContainers[_container].isEnable = false;\n    }\n\n\n    function pauseContainerContract() private  whenNotPaused {\n        pause();\n    }\n\n    function unpauseContainerContract() private  whenPaused {\n        unpause();\n    }\n\n\n    //Identificacin, Monitorizacin y Cambio de Estado de las bolsas de los contenedores\n    //Llama desde el  contenedor cuando se ha llenado una bolsa y se \n    //sube al Fronend para su seguimiento y posible cambio de estado\n\n     function addRecycledBag(bytes32 _hashAssociatedName, bytes32 _QR, address _associated, bytes32 _nameRef,  uint _item_1, uint _item_2, uint _item_3 ) onlyContainerEnable public returns (bool) {     \n\n         bool result = deres.addRecicledBag(hashAssociatedName, _QR, _associated, _nameRef, _item_1, _item_2, _item_3);\n\t\tif (result){\n            //* Actualiza las latas que se han introducido en el contenedor del asociado  y inicializa valores del contenedos          \n            updateRecycItems(listContainers[msg.sender].pack1, listContainers[msg.sender].pack2, listContainers[msg.sender].pack3);\n            \n            //Inicializa el contenedor a 0\n            listContainers[msg.sender].pack1 = 0;\n            listContainers[msg.sender].pack2 = 0;\n            listContainers[msg.sender].pack3 = 0;\n            listContainers[msg.sender].insideItems = 0;\n\n            return true;\n\n        }else {\n             return false;\n        }\n\n     }\n\n\n}",
  "sourcePath": "/home/cesar/master/pfm/dapp-principal/truffle/contracts/Associated_FC.sol",
  "compiler": {
    "name": "solc",
    "version": "0.5.12+commit.7709ece9.Emscripten.clang"
  },
  "schemaVersion": "3.0.19",
  "updatedAt": "2020-01-04T10:47:11.297Z",
  "devdoc": {
    "methods": {
      "pause()": {
        "details": "Called by a pauser to pause, triggers stopped state."
      },
      "paused()": {
        "details": "Returns true if the contract is paused, and false otherwise."
      },
      "unpause()": {
        "details": "Called by a pauser to unpause, returns to normal state."
      }
    }
  },
  "userdoc": {
    "methods": {}
  }
}