{
  "contractName": "CustomOracle",
  "abi": [
    {
      "inputs": [],
      "payable": true,
      "stateMutability": "payable",
      "type": "constructor"
    },
    {
      "anonymous": false,
      "inputs": [
        {
          "indexed": true,
          "internalType": "address",
          "name": "account",
          "type": "address"
        }
      ],
      "name": "AdminAdded",
      "type": "event"
    },
    {
      "anonymous": false,
      "inputs": [
        {
          "indexed": true,
          "internalType": "address",
          "name": "account",
          "type": "address"
        }
      ],
      "name": "AdminRemoved",
      "type": "event"
    },
    {
      "anonymous": false,
      "inputs": [
        {
          "indexed": false,
          "internalType": "string",
          "name": "description",
          "type": "string"
        }
      ],
      "name": "LogNewProvableQuery",
      "type": "event"
    },
    {
      "anonymous": false,
      "inputs": [
        {
          "indexed": false,
          "internalType": "string",
          "name": "currentDateTime",
          "type": "string"
        }
      ],
      "name": "currentDateTime",
      "type": "event"
    },
    {
      "anonymous": false,
      "inputs": [
        {
          "indexed": false,
          "internalType": "string",
          "name": "description",
          "type": "string"
        },
        {
          "indexed": false,
          "internalType": "string",
          "name": "value",
          "type": "string"
        }
      ],
      "name": "generateNewValue",
      "type": "event"
    },
    {
      "anonymous": false,
      "inputs": [
        {
          "indexed": false,
          "internalType": "uint256",
          "name": "randomNumber",
          "type": "uint256"
        }
      ],
      "name": "generatedRandomNumber",
      "type": "event"
    },
    {
      "anonymous": false,
      "inputs": [
        {
          "indexed": false,
          "internalType": "string",
          "name": "packaging",
          "type": "string"
        },
        {
          "indexed": false,
          "internalType": "uint256",
          "name": "points",
          "type": "uint256"
        }
      ],
      "name": "newPointsReward",
      "type": "event"
    },
    {
      "payable": true,
      "stateMutability": "payable",
      "type": "fallback"
    },
    {
      "constant": false,
      "inputs": [
        {
          "internalType": "address",
          "name": "account",
          "type": "address"
        }
      ],
      "name": "addAdmin",
      "outputs": [],
      "payable": false,
      "stateMutability": "nonpayable",
      "type": "function"
    },
    {
      "constant": true,
      "inputs": [],
      "name": "aluminumPrice",
      "outputs": [
        {
          "internalType": "uint256",
          "name": "",
          "type": "uint256"
        }
      ],
      "payable": false,
      "stateMutability": "view",
      "type": "function"
    },
    {
      "constant": true,
      "inputs": [],
      "name": "blocksPeriod",
      "outputs": [
        {
          "internalType": "uint256",
          "name": "",
          "type": "uint256"
        }
      ],
      "payable": false,
      "stateMutability": "view",
      "type": "function"
    },
    {
      "constant": true,
      "inputs": [],
      "name": "countQueryInProgress",
      "outputs": [
        {
          "internalType": "uint256",
          "name": "",
          "type": "uint256"
        }
      ],
      "payable": false,
      "stateMutability": "view",
      "type": "function"
    },
    {
      "constant": true,
      "inputs": [],
      "name": "dateTime",
      "outputs": [
        {
          "internalType": "string",
          "name": "",
          "type": "string"
        }
      ],
      "payable": false,
      "stateMutability": "view",
      "type": "function"
    },
    {
      "constant": true,
      "inputs": [],
      "name": "gasLimitHigh",
      "outputs": [
        {
          "internalType": "uint256",
          "name": "",
          "type": "uint256"
        }
      ],
      "payable": false,
      "stateMutability": "view",
      "type": "function"
    },
    {
      "constant": true,
      "inputs": [],
      "name": "gasLimitLow",
      "outputs": [
        {
          "internalType": "uint256",
          "name": "",
          "type": "uint256"
        }
      ],
      "payable": false,
      "stateMutability": "view",
      "type": "function"
    },
    {
      "constant": true,
      "inputs": [],
      "name": "gasLimitMed",
      "outputs": [
        {
          "internalType": "uint256",
          "name": "",
          "type": "uint256"
        }
      ],
      "payable": false,
      "stateMutability": "view",
      "type": "function"
    },
    {
      "constant": true,
      "inputs": [
        {
          "internalType": "address",
          "name": "account",
          "type": "address"
        }
      ],
      "name": "isAdmin",
      "outputs": [
        {
          "internalType": "bool",
          "name": "",
          "type": "bool"
        }
      ],
      "payable": false,
      "stateMutability": "view",
      "type": "function"
    },
    {
      "constant": true,
      "inputs": [],
      "name": "oilPrice",
      "outputs": [
        {
          "internalType": "uint256",
          "name": "",
          "type": "uint256"
        }
      ],
      "payable": false,
      "stateMutability": "view",
      "type": "function"
    },
    {
      "constant": true,
      "inputs": [],
      "name": "owner",
      "outputs": [
        {
          "internalType": "address payable",
          "name": "",
          "type": "address"
        }
      ],
      "payable": false,
      "stateMutability": "view",
      "type": "function"
    },
    {
      "constant": true,
      "inputs": [
        {
          "internalType": "uint256",
          "name": "",
          "type": "uint256"
        }
      ],
      "name": "packaging",
      "outputs": [
        {
          "internalType": "uint256",
          "name": "pointsPerPack",
          "type": "uint256"
        },
        {
          "internalType": "uint256",
          "name": "pointsMin",
          "type": "uint256"
        },
        {
          "internalType": "uint256",
          "name": "pointsMax",
          "type": "uint256"
        },
        {
          "internalType": "uint256",
          "name": "priceMin",
          "type": "uint256"
        },
        {
          "internalType": "uint256",
          "name": "priceMax",
          "type": "uint256"
        }
      ],
      "payable": false,
      "stateMutability": "view",
      "type": "function"
    },
    {
      "constant": true,
      "inputs": [],
      "name": "petPrice",
      "outputs": [
        {
          "internalType": "uint256",
          "name": "",
          "type": "uint256"
        }
      ],
      "payable": false,
      "stateMutability": "view",
      "type": "function"
    },
    {
      "constant": true,
      "inputs": [],
      "name": "prevBlock",
      "outputs": [
        {
          "internalType": "uint256",
          "name": "",
          "type": "uint256"
        }
      ],
      "payable": false,
      "stateMutability": "view",
      "type": "function"
    },
    {
      "constant": true,
      "inputs": [],
      "name": "priceEthMax",
      "outputs": [
        {
          "internalType": "uint256",
          "name": "",
          "type": "uint256"
        }
      ],
      "payable": false,
      "stateMutability": "view",
      "type": "function"
    },
    {
      "constant": true,
      "inputs": [],
      "name": "priceEthMin",
      "outputs": [
        {
          "internalType": "uint256",
          "name": "",
          "type": "uint256"
        }
      ],
      "payable": false,
      "stateMutability": "view",
      "type": "function"
    },
    {
      "constant": true,
      "inputs": [],
      "name": "randomNumber",
      "outputs": [
        {
          "internalType": "uint256",
          "name": "",
          "type": "uint256"
        }
      ],
      "payable": false,
      "stateMutability": "view",
      "type": "function"
    },
    {
      "constant": true,
      "inputs": [],
      "name": "rangeEthPrice",
      "outputs": [
        {
          "internalType": "uint256",
          "name": "",
          "type": "uint256"
        }
      ],
      "payable": false,
      "stateMutability": "view",
      "type": "function"
    },
    {
      "constant": true,
      "inputs": [],
      "name": "rateETHEUR",
      "outputs": [
        {
          "internalType": "uint256",
          "name": "",
          "type": "uint256"
        }
      ],
      "payable": false,
      "stateMutability": "view",
      "type": "function"
    },
    {
      "constant": true,
      "inputs": [],
      "name": "rateUSDEUR",
      "outputs": [
        {
          "internalType": "uint256",
          "name": "",
          "type": "uint256"
        }
      ],
      "payable": false,
      "stateMutability": "view",
      "type": "function"
    },
    {
      "constant": false,
      "inputs": [],
      "name": "renounceAdmin",
      "outputs": [],
      "payable": false,
      "stateMutability": "nonpayable",
      "type": "function"
    },
    {
      "constant": true,
      "inputs": [
        {
          "internalType": "uint256",
          "name": "_pack1Qty",
          "type": "uint256"
        },
        {
          "internalType": "uint256",
          "name": "_pack2Qty",
          "type": "uint256"
        },
        {
          "internalType": "uint256",
          "name": "_pack3Qty",
          "type": "uint256"
        }
      ],
      "name": "calculatePoints",
      "outputs": [
        {
          "internalType": "uint256",
          "name": "_totalPoints",
          "type": "uint256"
        }
      ],
      "payable": false,
      "stateMutability": "view",
      "type": "function"
    },
    {
      "constant": true,
      "inputs": [],
      "name": "getPointsPerPack",
      "outputs": [
        {
          "internalType": "uint256",
          "name": "_pointsPack1",
          "type": "uint256"
        },
        {
          "internalType": "uint256",
          "name": "_pointsPack2",
          "type": "uint256"
        },
        {
          "internalType": "uint256",
          "name": "_pointsPack3",
          "type": "uint256"
        }
      ],
      "payable": false,
      "stateMutability": "view",
      "type": "function"
    },
    {
      "constant": false,
      "inputs": [
        {
          "internalType": "uint256",
          "name": "_blocksPeriod",
          "type": "uint256"
        }
      ],
      "name": "setBlocksPeriod",
      "outputs": [],
      "payable": false,
      "stateMutability": "nonpayable",
      "type": "function"
    },
    {
      "constant": false,
      "inputs": [
        {
          "internalType": "uint256",
          "name": "_lowLimit",
          "type": "uint256"
        },
        {
          "internalType": "uint256",
          "name": "_medLimit",
          "type": "uint256"
        },
        {
          "internalType": "uint256",
          "name": "_highLimit",
          "type": "uint256"
        }
      ],
      "name": "setGasLimit",
      "outputs": [],
      "payable": false,
      "stateMutability": "nonpayable",
      "type": "function"
    },
    {
      "constant": false,
      "inputs": [
        {
          "internalType": "uint256",
          "name": "_ind",
          "type": "uint256"
        },
        {
          "internalType": "uint256",
          "name": "_pointsMin",
          "type": "uint256"
        },
        {
          "internalType": "uint256",
          "name": "_pointsMax",
          "type": "uint256"
        },
        {
          "internalType": "uint256",
          "name": "_priceMin",
          "type": "uint256"
        },
        {
          "internalType": "uint256",
          "name": "_priceMax",
          "type": "uint256"
        }
      ],
      "name": "setPointsPerPackaging",
      "outputs": [],
      "payable": false,
      "stateMutability": "nonpayable",
      "type": "function"
    },
    {
      "constant": false,
      "inputs": [
        {
          "internalType": "uint256",
          "name": "_priceEthMin",
          "type": "uint256"
        },
        {
          "internalType": "uint256",
          "name": "_priceEthMax",
          "type": "uint256"
        }
      ],
      "name": "setRangeEthPrice",
      "outputs": [],
      "payable": false,
      "stateMutability": "nonpayable",
      "type": "function"
    },
    {
      "constant": false,
      "inputs": [],
      "name": "checkNextProcess",
      "outputs": [],
      "payable": false,
      "stateMutability": "nonpayable",
      "type": "function"
    },
    {
      "constant": false,
      "inputs": [
        {
          "internalType": "bytes32",
          "name": "_queryId",
          "type": "bytes32"
        },
        {
          "internalType": "string",
          "name": "_result",
          "type": "string"
        }
      ],
      "name": "__callback",
      "outputs": [],
      "payable": false,
      "stateMutability": "nonpayable",
      "type": "function"
    },
    {
      "constant": false,
      "inputs": [
        {
          "internalType": "bytes32",
          "name": "_myid",
          "type": "bytes32"
        },
        {
          "internalType": "string",
          "name": "_result",
          "type": "string"
        },
        {
          "internalType": "bytes",
          "name": "_proof",
          "type": "bytes"
        }
      ],
      "name": "__callback",
      "outputs": [],
      "payable": false,
      "stateMutability": "nonpayable",
      "type": "function"
    },
    {
      "constant": false,
      "inputs": [
        {
          "internalType": "uint256",
          "name": "_min",
          "type": "uint256"
        },
        {
          "internalType": "uint256",
          "name": "_max",
          "type": "uint256"
        }
      ],
      "name": "newRandomRequest",
      "outputs": [],
      "payable": true,
      "stateMutability": "payable",
      "type": "function"
    },
    {
      "constant": false,
      "inputs": [
        {
          "internalType": "uint256",
          "name": "_amount",
          "type": "uint256"
        }
      ],
      "name": "newEthEurRateRequest",
      "outputs": [],
      "payable": true,
      "stateMutability": "payable",
      "type": "function"
    },
    {
      "constant": false,
      "inputs": [
        {
          "internalType": "uint256",
          "name": "_amount",
          "type": "uint256"
        }
      ],
      "name": "newUsdEurRateRequest",
      "outputs": [],
      "payable": true,
      "stateMutability": "payable",
      "type": "function"
    },
    {
      "constant": false,
      "inputs": [],
      "name": "newPetPriceRequest",
      "outputs": [],
      "payable": true,
      "stateMutability": "payable",
      "type": "function"
    },
    {
      "constant": false,
      "inputs": [],
      "name": "newAluminumPriceRequest",
      "outputs": [],
      "payable": true,
      "stateMutability": "payable",
      "type": "function"
    },
    {
      "constant": false,
      "inputs": [],
      "name": "newOilPriceRequest",
      "outputs": [],
      "payable": true,
      "stateMutability": "payable",
      "type": "function"
    },
    {
      "constant": false,
      "inputs": [],
      "name": "getCurrentDateTime",
      "outputs": [],
      "payable": true,
      "stateMutability": "payable",
      "type": "function"
    },
    {
      "constant": false,
      "inputs": [
        {
          "internalType": "string",
          "name": "_message",
          "type": "string"
        }
      ],
      "name": "setFunds",
      "outputs": [
        {
          "internalType": "string",
          "name": "",
          "type": "string"
        }
      ],
      "payable": true,
      "stateMutability": "payable",
      "type": "function"
    },
    {
      "constant": false,
      "inputs": [
        {
          "internalType": "uint256",
          "name": "_amount",
          "type": "uint256"
        }
      ],
      "name": "transfer",
      "outputs": [],
      "payable": false,
      "stateMutability": "nonpayable",
      "type": "function"
    },
    {
      "constant": true,
      "inputs": [],
      "name": "getContractBalance",
      "outputs": [
        {
          "internalType": "uint256",
          "name": "",
          "type": "uint256"
        }
      ],
      "payable": false,
      "stateMutability": "view",
      "type": "function"
    }
  ],
  "bytecode": "0x60806040526200002a6200001b6001600160e01b036200007016565b6001600160e01b036200007416565b602d80546001600160a01b03191633179055620249f060295562030d40602a5562061a80602b55611770602c556200006a6001600160e01b03620000c616565b6200014c565b3390565b6200008f8160056200012760201b6200339f1790919060201c565b6040516001600160a01b038216907f44d6d25963f097ad14f29f06854a01f575648a1ef82f30e562ccd3889717e33990600090a250565b60005b60038110156200012457600160168260038110620000e357fe5b6005020155600160168260038110620000f857fe5b60050201600101819055506001601682600381106200011357fe5b6005020160020155600101620000c9565b50565b6001600160a01b0316600090815260209190915260409020805460ff19166001179055565b61415f806200015c6000396000f3fe60806040526004361061023a5760003560e01c80636f9fb98a1161012e578063bd42115f116100ab578063d0c8425f1161006f578063d0c8425f14610991578063db09bded146109a6578063e055aeeb146109ae578063f06b0f70146109e4578063ffed1245146109f95761023a565b8063bd42115f14610891578063c11044ca146108a6578063c97c5e86146108bb578063ccbac9f5146108d8578063cf222b59146108ed5761023a565b80638da5cb5b116100f25780638da5cb5b1461078457806390e2cc33146107b55780639d129afd1461080a578063aa6d1d791461081f578063acd804f41461084f5761023a565b80636f9fb98a146106fc578063704802751461071157806388d82561146107445780638977a6041461074c5780638bad0c0a1461076f5761023a565b8063306b82f9116101bc578063568ff86d11610180578063568ff86d1461069857806356aa595f146106ad578063617fa7b6146106c257806364f55ddb146106d757806366f50177146106df5761023a565b8063306b82f91461049257806338bbfa50146104a757806348453897146105e457806348c8cd41146105f95780634a8198e6146106835761023a565b8063248a3b3611610203578063248a3b361461034c57806324d7806c1461036157806327dc297e146103a85780632b3f6db514610460578063301e74f11461048a5761023a565b806262870f1461027b57806312305646146102ae57806312514bba146102d55780631740088c14610301578063196148f614610316575b6040805162461bcd60e51b81526020600482015260116024820152702330b6363130b1b590333ab731ba34b7b760791b604482015290519081900360640190fd5b34801561028757600080fd5b50610290610a0e565b60408051938452602084019290925282820152519081900360600190f35b3480156102ba57600080fd5b506102c3610a1e565b60408051918252519081900360200190f35b3480156102e157600080fd5b506102ff600480360360208110156102f857600080fd5b5035610a24565b005b34801561030d57600080fd5b506102c3610af8565b34801561032257600080fd5b506102ff6004803603606081101561033957600080fd5b5080359060208101359060400135610afe565b34801561035857600080fd5b506102c3610cd6565b34801561036d57600080fd5b506103946004803603602081101561038457600080fd5b50356001600160a01b0316610cdc565b604080519115158252519081900360200190f35b3480156103b457600080fd5b506102ff600480360360408110156103cb57600080fd5b81359190810190604081016020820135600160201b8111156103ec57600080fd5b8201836020820111156103fe57600080fd5b803590602001918460018302840111600160201b8311171561041f57600080fd5b91908080601f016020809104026020016040519081016040528093929190818152602001838380828437600092019190915250929550610cf7945050505050565b34801561046c57600080fd5b506102ff6004803603602081101561048357600080fd5b50356114c1565b6102ff611520565b34801561049e57600080fd5b506102c361159c565b3480156104b357600080fd5b506102ff600480360360608110156104ca57600080fd5b81359190810190604081016020820135600160201b8111156104eb57600080fd5b8201836020820111156104fd57600080fd5b803590602001918460018302840111600160201b8311171561051e57600080fd5b91908080601f0160208091040260200160405190810160405280939291908181526020018383808284376000920191909152509295949360208101935035915050600160201b81111561057057600080fd5b82018360208201111561058257600080fd5b803590602001918460018302840111600160201b831117156105a357600080fd5b91908080601f0160208091040260200160405190810160405280939291908181526020018383808284376000920191909152509295506115a2945050505050565b3480156105f057600080fd5b506102c36115d3565b34801561060557600080fd5b5061060e6115d9565b6040805160208082528351818301528351919283929083019185019080838360005b83811015610648578181015183820152602001610630565b50505050905090810190601f1680156106755780820380516001836020036101000a031916815260200191505b509250505060405180910390f35b34801561068f57600080fd5b506102c3611667565b3480156106a457600080fd5b506102c361166d565b3480156106b957600080fd5b506102c3611673565b3480156106ce57600080fd5b506102c3611679565b6102ff61167f565b6102ff600480360360208110156106f557600080fd5b50356116fb565b34801561070857600080fd5b506102c361182e565b34801561071d57600080fd5b506102ff6004803603602081101561073457600080fd5b50356001600160a01b0316611834565b6102ff611883565b6102ff6004803603604081101561076257600080fd5b50803590602001356118ff565b34801561077b57600080fd5b506102ff611a7f565b34801561079057600080fd5b50610799611a91565b604080516001600160a01b039092168252519081900360200190f35b3480156107c157600080fd5b506107df600480360360208110156107d857600080fd5b5035611aa0565b6040805195865260208601949094528484019290925260608401526080830152519081900360a00190f35b34801561081657600080fd5b506102c3611ad2565b34801561082b57600080fd5b506102ff6004803603604081101561084257600080fd5b5080359060200135611ad8565b34801561085b57600080fd5b506102ff600480360360a081101561087257600080fd5b5080359060208101359060408101359060608101359060800135611bd3565b34801561089d57600080fd5b506102c3611e54565b3480156108b257600080fd5b506102c3611e5a565b6102ff600480360360208110156108d157600080fd5b5035611e60565b3480156108e457600080fd5b506102c3611f93565b61060e6004803603602081101561090357600080fd5b810190602081018135600160201b81111561091d57600080fd5b82018360208201111561092f57600080fd5b803590602001918460018302840111600160201b8311171561095057600080fd5b91908080601f016020809104026020016040519081016040528093929190818152602001838380828437600092019190915250929550611f99945050505050565b34801561099d57600080fd5b506102c3611ff4565b6102ff611ffa565b3480156109ba57600080fd5b506102c3600480360360608110156109d157600080fd5b508035906020810135906040013561206c565b3480156109f057600080fd5b506102c36120e3565b348015610a0557600080fd5b506102ff6120e9565b601654601b546020549192909190565b602c5481565b610a34610a2f61215b565b610cdc565b610a6f5760405162461bcd60e51b815260040180806020018281038252602e815260200180613f92602e913960400191505060405180910390fd5b3031811115610aba576040805162461bcd60e51b81526020600482015260126024820152716e6f7420656e6f7567682062616c616e636560701b604482015290519081900360640190fd5b602d546040516001600160a01b039091169082156108fc029083906000818181858888f19350505050158015610af4573d6000803e3d6000fd5b5050565b60095481565b610b09610a2f61215b565b610b445760405162461bcd60e51b815260040180806020018281038252602e815260200180613f92602e913960400191505060405180910390fd5b620249f0831015610b9c576040805162461bcd60e51b815260206004820152601a60248201527f476173206c696d697420286c6f772920697320746f6f206c6f77000000000000604482015290519081900360640190fd5b818310610bda5760405162461bcd60e51b8152600401808060200182810382526029815260200180613dcc6029913960400191505060405180910390fd5b62030d40821015610c32576040805162461bcd60e51b815260206004820152601a60248201527f476173206c696d697420286d65642920697320746f6f206c6f77000000000000604482015290519081900360640190fd5b808210610c705760405162461bcd60e51b815260040180806020018281038252602a815260200180613da2602a913960400191505060405180910390fd5b62061a80811015610cc8576040805162461bcd60e51b815260206004820152601b60248201527f476173206c696d69742028686967682920697320746f6f206c6f770000000000604482015290519081900360640190fd5b602992909255602a55602b55565b602b5481565b6000610cef60058363ffffffff61215f16565b90505b919050565b610cff6121ca565b6001600160a01b0316336001600160a01b031614610d5a576040805162461bcd60e51b815260206004820152601360248201527214d95b99195c881a5cc81b9bdd081d985b1a59606a1b604482015290519081900360640190fd5b60008281526015602052604090205460ff161515600114610db4576040805162461bcd60e51b815260206004820152600f60248201526e145d595c9e481b9bdd08199bdd5b99608a1b604482015290519081900360640190fd5b60008083815260156020526040902054610100900460ff166006811115610dd757fe5b1415610e2257610de6816123b3565b600681905560408051918252517fc13d60fe9dffdb6908d2d446cd18134373a51db0738ee04f296eeb9128121cbc9181900360200190a1611273565b6001600083815260156020526040902054610100900460ff166006811115610e4657fe5b1415610f0857610e578160046123bc565b600a8190555060008051602061400a83398151915281604051808060200180602001838103835260038152602001806213d25360ea1b815250602001838103825284818151815260200191508051906020019080838360005b83811015610ec8578181015183820152602001610eb0565b50505050905090810190601f168015610ef55780820380516001836020036101000a031916815260200191505b50935050505060405180910390a1611273565b6002600083815260156020526040902054610100900460ff166006811115610f2c57fe5b1415610faa57610f3d8160046123bc565b600b55604080518181526003918101919091526214115560ea1b606082015260806020808301828152845192840192909252835160008051602061400a8339815191529385939092839260a084019186019080838360008315610ec8578181015183820152602001610eb0565b6003600083815260156020526040902054610100900460ff166006811115610fce57fe5b141561105157610fdf8160046123bc565b6009556040805181815260089181019190915267414c554d494e554d60c01b606082015260806020808301828152845192840192909252835160008051602061400a8339815191529385939092839260a084019186019080838360008315610ec8578181015183820152602001610eb0565b6004600083815260156020526040902054610100900460ff16600681111561107557fe5b14156110f6576110868160046123bc565b600755604080518181526006918101919091526522aa2422aaa960d11b606082015260806020808301828152845192840192909252835160008051602061400a8339815191529385939092839260a084019186019080838360008315610ec8578181015183820152602001610eb0565b6005600083815260156020526040902054610100900460ff16600681111561111a57fe5b141561119b5761112b8160046123bc565b60085560408051818152600691810191909152652aa9a222aaa960d11b606082015260806020808301828152845192840192909252835160008051602061400a8339815191529385939092839260a084019186019080838360008315610ec8578181015183820152602001610eb0565b6006600083815260156020526040902054610100900460ff1660068111156111bf57fe5b14156112735780516111d890600c9060208401906137ed565b507f3b3577f895e624fda0617d3bff19a38f7307ab96844000c2b906ec3f22241cb0816040518080602001828103825283818151815260200191508051906020019080838360005b83811015611238578181015183820152602001611220565b50505050905090810190601f1680156112655780820380516001836020036101000a031916815260200191505b509250505060405180910390a15b6000828152601560205260409020805461ffff1916905560145461129e90600163ffffffff61248b16565b601455600b54158015906112b457506000600754115b1561141357600b5460075461130f9190601660005b600502016040518060a0016040529081600082015481526020016001820154815260200160028201548152602001600382015481526020016004820154815250506124cd565b80516016908155602082015160175560408201516018556060820151601955608090910151601a55600b546007546113489260016112c9565b8051601b55602080820151601c55604080830151601d55606080840151601e55608093840151601f55601654825193840152818352600583830152645041434b3160d81b90830152517fed7d51f90cafba5d30efba79328422c87277f08b0fd49f719115817fd44f0c18929181900390910190a1601b54604080516020810192909252808252600582820152642820a1a59960d91b6060830152517fed7d51f90cafba5d30efba79328422c87277f08b0fd49f719115817fd44f0c189181900360800190a16000600b555b600060095411801561142757506000600754115b15610af4576009546007546114409190601660026112c9565b8051602081815580830151602155604080840151602255606080850151602355608094850151602455815192830193909352808252600582820152645041434b3360d81b9282019290925290517fed7d51f90cafba5d30efba79328422c87277f08b0fd49f719115817fd44f0c18929181900390910190a160006009555050565b6114cc610a2f61215b565b6115075760405162461bcd60e51b815260040180806020018281038252602e815260200180613f92602e913960400191505060405180910390fd5b8061151757611770602c5561151d565b602c8190555b50565b600f5443116115605760405162461bcd60e51b815260040180806020018281038252602b815260200180613a90602b913960400191505060405180910390fd5b6060604051602001808061399a60d1913960d10190506040516020818303038152906040529050611595816002602b5461278c565b5043600f55565b60255481565b5050600080805260036020527f3617319a054d772f909f7c479a2cebe5066e836a939412e32403c99029b92eff5550565b60265481565b600c805460408051602060026001851615610100026000190190941693909304601f8101849004840282018401909252818152929183018282801561165f5780601f106116345761010080835404028352916020019161165f565b820191906000526020600020905b81548152906001019060200180831161164257829003601f168201915b505050505081565b60275481565b60085481565b60075481565b60295481565b60105443116116bf5760405162461bcd60e51b815260040180806020018281038252602b815260200180613a90602b913960400191505060405180910390fd5b60606040516020018080613e3860fa913960fa01905060405160208183030381529060405290506116f4816003602b5461278c565b5043601055565b60008111611750576040805162461bcd60e51b815260206004820152601f60248201527f416d6f756e74206973206e6f742067726561746572207468616e207a65726f00604482015290519081900360640190fd5b60125443116117905760405162461bcd60e51b815260040180806020018281038252602b815260200180613a90602b913960400191505060405180910390fd5b606061179b826128f2565b604051602001806050613d04823960500182805190602001908083835b602083106117d75780518252601f1990920191602091820191016117b8565b6001836020036101000a03801982511681845116808217855250505050505090500180613c1b60e9913960e9019150506040516020818303038152906040529050611826816005602a5461278c565b505043601255565b30315b90565b61183f610a2f61215b565b61187a5760405162461bcd60e51b815260040180806020018281038252602e815260200180613f92602e913960400191505060405180910390fd5b61151d816129aa565b600e5443116118c35760405162461bcd60e51b815260040180806020018281038252602b815260200180613a90602b913960400191505060405180910390fd5b60606040516020018080613adb60f5913960f501905060405160208183030381529060405290506118f8816001602a5461278c565b5043600e55565b81811161193d5760405162461bcd60e51b8152600401808060200182810382526027815260200180613fe36027913960400191505060405180910390fd5b600d54431161197d5760405162461bcd60e51b815260040180806020018281038252602b815260200180613a90602b913960400191505060405180910390fd5b6060611988836128f2565b611991836128f2565b60405160200180602b6141008239602b0183805190602001908083835b602083106119cd5780518252601f1990920191602091820191016119ae565b51815160209384036101000a600019018019909216911617905264266d61783d60d81b919093019081528451600590910192850191508083835b60208310611a265780518252601f199092019160209182019101611a07565b6001836020036101000a03801982511681845116808217855250505050505090500180613fc060239139602301925050506040516020818303038152906040529050611a76816000602a546129f2565b505043600d5550565b611a8f611a8a61215b565b612b4c565b565b602d546001600160a01b031681565b60168160038110611aad57fe5b6005020180546001820154600283015460038401546004909401549294509092909185565b60285481565b611ae3610a2f61215b565b611b1e5760405162461bcd60e51b815260040180806020018281038252602e815260200180613f92602e913960400191505060405180910390fd5b60648211611b5d5760405162461bcd60e51b815260040180806020018281038252602b8152602001806140a1602b913960400191505060405180910390fd5b80821115611bb2576040805162461bcd60e51b815260206004820152601e60248201527f56616c756520666f722070726963657320617265206e6f742076616c69640000604482015290519081900360640190fd5b60258290556026819055611bcc818363ffffffff61248b16565b6027555050565b611bde610a2f61215b565b611c195760405162461bcd60e51b815260040180806020018281038252602e815260200180613f92602e913960400191505060405180910390fd5b60038510611c6e576040805162461bcd60e51b815260206004820152601860248201527f496e6465782076616c7565206973206e6f742076616c69640000000000000000604482015290519081900360640190fd5b60008411611cad5760405162461bcd60e51b815260040180806020018281038252602d815260200180613d54602d913960400191505060405180910390fd5b6103e88310611ced5760405162461bcd60e51b8152600401808060200182810382526021815260200180613f716021913960400191505060405180910390fd5b82841115611d42576040805162461bcd60e51b815260206004820152601f60248201527f56616c75657320666f7220706f696e747320617265206e6f742076616c696400604482015290519081900360640190fd5b60648211611d815760405162461bcd60e51b8152600401808060200182810382526025815260200180613a6b6025913960400191505060405180910390fd5b80821115611dd6576040805162461bcd60e51b815260206004820152601e60248201527f56616c756520666f722070726963657320617265206e6f742076616c69640000604482015290519081900360640190fd5b8360168660038110611de457fe5b60050201558360168660038110611df757fe5b60050201600101819055508260168660038110611e1057fe5b60050201600201819055508160168660038110611e2957fe5b60050201600301819055508060168660038110611e4257fe5b60050201600401819055505050505050565b600b5481565b60145481565b60008111611eb5576040805162461bcd60e51b815260206004820152601f60248201527f416d6f756e74206973206e6f742067726561746572207468616e207a65726f00604482015290519081900360640190fd5b6011544311611ef55760405162461bcd60e51b815260040180806020018281038252602b815260200180613a90602b913960400191505060405180910390fd5b6060611f00826128f2565b604051602001806050613d04823960500182805190602001908083835b60208310611f3c5780518252601f199092019160209182019101611f1d565b6001836020036101000a038019825116818451168082178552505050505050905001806138b160e9913960e9019150506040516020818303038152906040529050611f8b816004602b5461278c565b505043601155565b60065481565b606060003411611ff0576040805162461bcd60e51b815260206004820152601e60248201527f76616c7565206973206e6f742067726561746572207468616e207a65726f0000604482015290519081900360640190fd5b5090565b600a5481565b601354431161203a5760405162461bcd60e51b815260040180806020018281038252602b815260200180613a90602b913960400191505060405180910390fd5b60606040518060600160405280603f8152602001613f32603f913990506120658160066029546129f2565b5043601355565b60008061208f83612083878763ffffffff612b9416565b9063ffffffff612b9416565b11156120d8576020546120d1906120c5906120ab908590612bee565b612083601660015b6005020154879063ffffffff612bee16565b612083601660006120b3565b90506120dc565b5060005b9392505050565b602a5481565b6120f4610a2f61215b565b61212f5760405162461bcd60e51b815260040180806020018281038252602e815260200180613f92602e913960400191505060405180910390fd5b43602c54602854011015611a8f574360285561214b6001611e60565b612153611520565b611a8f61167f565b3390565b60006001600160a01b0382166121a65760405162461bcd60e51b8152600401808060200182810382526022815260200180613e166022913960400191505060405180910390fd5b506001600160a01b03811660009081526020839052604090205460ff165b92915050565b6001546000906001600160a01b031615806121f757506001546121f5906001600160a01b0316612c47565b155b15612208576122066000612c4b565b505b600160009054906101000a90046001600160a01b03166001600160a01b03166338cc48316040518163ffffffff1660e01b8152600401602060405180830381600087803b15801561225857600080fd5b505af115801561226c573d6000803e3d6000fd5b505050506040513d602081101561228257600080fd5b50516000546001600160a01b0390811691161461233557600160009054906101000a90046001600160a01b03166001600160a01b03166338cc48316040518163ffffffff1660e01b8152600401602060405180830381600087803b1580156122e957600080fd5b505af11580156122fd573d6000803e3d6000fd5b505050506040513d602081101561231357600080fd5b5051600080546001600160a01b0319166001600160a01b039092169190911790555b6000809054906101000a90046001600160a01b03166001600160a01b031663c281d19e6040518163ffffffff1660e01b815260040160206040518083038186803b15801561238257600080fd5b505afa158015612396573d6000803e3d6000fd5b505050506040513d60208110156123ac57600080fd5b5051905090565b6000610cef8260005b6000828180805b83518110156124725760308482815181106123da57fe5b016020015160f81c10801590612404575060398482815181106123f957fe5b016020015160f81c11155b15612448578115612421578561241957612472565b600019909501945b600a83029250603084828151811061243557fe5b016020015160f81c03929092019161246a565b83818151811061245457fe5b60209101015160f81c602e141561246a57600191505b6001016123c3565b5084156124825784600a0a820291505b50949350505050565b60006120dc83836040518060400160405280601e81526020017f536166654d6174683a207375627472616374696f6e206f766572666c6f770000815250612c55565b6124d5613867565b60008411612522576040805162461bcd60e51b815260206004820152601560248201527450726963652063616e206e6f74206265207a65726f60581b604482015290519081900360640190fd5b60008311612577576040805162461bcd60e51b815260206004820152601b60248201527f45746865722070726963652063616e206e6f74206265207a65726f0000000000604482015290519081900360640190fd5b6060820151600090819081908190819081908a11801561259a5750606088015115155b156125d05760608801516125b5908b9063ffffffff61248b16565b935089886080015110156125cb57608088018a90525b6125d8565b606088018a90525b886025541080156125ea575060255415155b1561260a57602554612603908a9063ffffffff61248b16565b9250612610565b60258990555b8860265410156126205760268990555b6025546026546126359163ffffffff61248b16565b60275560808801516060890151101561266857606088015160808901516126619163ffffffff61248b16565b9450612673565b606088015160808901525b876040015188602001511015612711576020880151604089015161269c9163ffffffff61248b16565b955084156126d8576126d56126b7868863ffffffff612cec16565b6126c98661271063ffffffff612bee16565b9063ffffffff612cec16565b91505b6027541561270c57602754612709906126f7908863ffffffff612cec16565b6126c98561271063ffffffff612bee16565b90505b61271c565b602088015160408901525b61274f6127106126c983612743866120836127108f60200151612bee90919063ffffffff16565b9063ffffffff61248b16565b80895260208901511115612769576020880151885261277e565b60408801518851111561277e57604088015188525b509598975050505050505050565b60008351116127d3576040805162461bcd60e51b815260206004820152600e60248201526d517565727920697320656d70747960901b604482015290519081900360640190fd5b6000306001600160a01b03163161280860405180604001604052806006815260200165139154d5115160d21b81525084612d2e565b111561287e57600080516020613abb83398151915260405180806020018281038252604b815260200180613bd0604b913960600191505060405180910390a160405162461bcd60e51b81526004018080602001828103825260348152602001806140cc6034913960400191505060405180910390fd5b6128a7604051806040016040528060068152602001651b995cdd195960d21b8152508584612f86565b9050600080516020613abb83398151915260405180806020018281038252603d81526020018061402a603d913960400191505060405180910390a16128ec818461334e565b50505050565b60608161291757506040805180820190915260018152600360fc1b6020820152610cf2565b8160005b811561292f57600101600a8204915061291b565b6060816040519080825280601f01601f19166020018201604052801561295c576020820181803883390190505b50905060001982015b851561248257600a860660300160f81b8282806001900393508151811061298857fe5b60200101906001600160f81b031916908160001a905350600a86049550612965565b6129bb60058263ffffffff61339f16565b6040516001600160a01b038216907f44d6d25963f097ad14f29f06854a01f575648a1ef82f30e562ccd3889717e33990600090a250565b6000835111612a39576040805162461bcd60e51b815260206004820152600e60248201526d517565727920697320656d70747960901b604482015290519081900360640190fd5b6000306001600160a01b031631612a6b6040518060400160405280600381526020016215549360ea1b81525084612d2e565b1115612ae157600080516020613abb83398151915260405180806020018281038252604b815260200180613bd0604b913960600191505060405180910390a160405162461bcd60e51b81526004018080602001828103825260348152602001806140cc6034913960400191505060405180910390fd5b612b076040518060400160405280600381526020016215549360ea1b8152508584612f86565b9050600080516020613abb83398151915260405180806020018281038252603a815260200180614067603a913960400191505060405180910390a16128ec818461334e565b612b5d60058263ffffffff6133c416565b6040516001600160a01b038216907fa3b62bc36326052d97ea62d63c3d60308ed4c3ea8ac079dd8499f1e9c4f80c0f90600090a250565b6000828201838110156120dc576040805162461bcd60e51b815260206004820152601b60248201527f536166654d6174683a206164646974696f6e206f766572666c6f770000000000604482015290519081900360640190fd5b600082612bfd575060006121c4565b82820282848281612c0a57fe5b04146120dc5760405162461bcd60e51b8152600401808060200182810382526021815260200180613df56021913960400191505060405180910390fd5b3b90565b6000610cef61342b565b60008184841115612ce45760405162461bcd60e51b81526004018080602001828103825283818151815260200191508051906020019080838360005b83811015612ca9578181015183820152602001612c91565b50505050905090810190601f168015612cd65780820380516001836020036101000a031916815260200191505b509250505060405180910390fd5b505050900390565b60006120dc83836040518060400160405280601a81526020017f536166654d6174683a206469766973696f6e206279207a65726f000000000000815250613779565b6001546000906001600160a01b03161580612d5b5750600154612d59906001600160a01b0316612c47565b155b15612d6c57612d6a6000612c4b565b505b600160009054906101000a90046001600160a01b03166001600160a01b03166338cc48316040518163ffffffff1660e01b8152600401602060405180830381600087803b158015612dbc57600080fd5b505af1158015612dd0573d6000803e3d6000fd5b505050506040513d6020811015612de657600080fd5b50516000546001600160a01b03908116911614612e9957600160009054906101000a90046001600160a01b03166001600160a01b03166338cc48316040518163ffffffff1660e01b8152600401602060405180830381600087803b158015612e4d57600080fd5b505af1158015612e61573d6000803e3d6000fd5b505050506040513d6020811015612e7757600080fd5b5051600080546001600160a01b0319166001600160a01b039092169190911790555b6000805460408051630bbceb3360e21b815260248101869052600481019182528651604482015286516001600160a01b0390931693632ef3accc93889388939092839260649092019160208701918190849084905b83811015612f06578181015183820152602001612eee565b50505050905090810190601f168015612f335780820380516001836020036101000a031916815260200191505b509350505050602060405180830381600087803b158015612f5357600080fd5b505af1158015612f67573d6000803e3d6000fd5b505050506040513d6020811015612f7d57600080fd5b50519392505050565b6001546000906001600160a01b03161580612fb35750600154612fb1906001600160a01b0316612c47565b155b15612fc457612fc26000612c4b565b505b600160009054906101000a90046001600160a01b03166001600160a01b03166338cc48316040518163ffffffff1660e01b8152600401602060405180830381600087803b15801561301457600080fd5b505af1158015613028573d6000803e3d6000fd5b505050506040513d602081101561303e57600080fd5b50516000546001600160a01b039081169116146130f157600160009054906101000a90046001600160a01b03166001600160a01b03166338cc48316040518163ffffffff1660e01b8152600401602060405180830381600087803b1580156130a557600080fd5b505af11580156130b9573d6000803e3d6000fd5b505050506040513d60208110156130cf57600080fd5b5051600080546001600160a01b0319166001600160a01b039092169190911790555b6000805460408051630bbceb3360e21b815260248101869052600481019182528751604482015287516001600160a01b0390931692632ef3accc928992889282916064019060208601908083838c5b83811015613158578181015183820152602001613140565b50505050905090810190601f1680156131855780820380516001836020036101000a031916815260200191505b509350505050602060405180830381600087803b1580156131a557600080fd5b505af11580156131b9573d6000803e3d6000fd5b505050506040513d60208110156131cf57600080fd5b50519050670de0b6b3a76400003a8402018111156131f15750600090506120dc565b6000805460405163c51be90f60e01b815260048101838152606482018790526080602483019081528951608484015289516001600160a01b039094169463c51be90f94879491938c938c938c93604482019160a4019060208801908083838c5b83811015613269578181015183820152602001613251565b50505050905090810190601f1680156132965780820380516001836020036101000a031916815260200191505b50838103825285518152855160209182019187019080838360005b838110156132c95781810151838201526020016132b1565b50505050905090810190601f1680156132f65780820380516001836020036101000a031916815260200191505b5096505050505050506020604051808303818588803b15801561331857600080fd5b505af115801561332c573d6000803e3d6000fd5b50505050506040513d602081101561334357600080fd5b505195945050505050565b6000828152601560205260409020805460ff191660011780825582919061ff00191661010083600681111561337f57fe5b021790555060145461339890600163ffffffff612b9416565b6014555050565b6001600160a01b0316600090815260209190915260409020805460ff19166001179055565b6133ce828261215f565b6134095760405162461bcd60e51b8152600401808060200182810382526021815260200180613d816021913960400191505060405180910390fd5b6001600160a01b0316600090815260209190915260409020805460ff19169055565b60008061344b731d3b2638a7cc9f2cb3d298a3da7a90b67e5506ed612c47565b11156134aa57600180546001600160a01b031916731d3b2638a7cc9f2cb3d298a3da7a90b67e5506ed17905560408051808201909152600b81526a195d1a17db585a5b9b995d60aa1b60208201526134a2906137de565b506001611831565b60006134c973c03a2615d5efaf5f49f60b7bb6583eaec212fdf1612c47565b111561352157600180546001600160a01b03191673c03a2615d5efaf5f49f60b7bb6583eaec212fdf117905560408051808201909152600c81526b6574685f726f707374656e3360a01b60208201526134a2906137de565b600061354073b7a07bcf2ba2f2703b24c0691b5278999c59ac7e612c47565b111561359557600180546001600160a01b03191673b7a07bcf2ba2f2703b24c0691b5278999c59ac7e17905560408051808201909152600981526832ba342fb5b7bb30b760b91b60208201526134a2906137de565b60006135b473146500cfd35b22e4a392fe0adc06de1a1368ed48612c47565b111561360b57600180546001600160a01b03191673146500cfd35b22e4a392fe0adc06de1a1368ed4817905560408051808201909152600b81526a6574685f72696e6b65627960a81b60208201526134a2906137de565b600061362a73a2998efd205fb9d4b4963afb70778d6354ad3a41612c47565b111561368057600180546001600160a01b03191673a2998efd205fb9d4b4963afb70778d6354ad3a4117905560408051808201909152600a8152696574685f676f65726c6960b01b60208201526134a2906137de565b600061369f736f485c8bf6fc43ea212e93bbf8ce046c7f1cb475612c47565b11156136d15750600180546001600160a01b031916736f485c8bf6fc43ea212e93bbf8ce046c7f1cb475178155611831565b60006136f07320e12a1f859b3feae5fb2a0a32c18f5a65555bbf612c47565b11156137225750600180546001600160a01b0319167320e12a1f859b3feae5fb2a0a32c18f5a65555bbf178155611831565b60006137417351efaf4c8b3c9afbd5ab9f4bbc82784ab6ef8faa612c47565b11156137735750600180546001600160a01b0319167351efaf4c8b3c9afbd5ab9f4bbc82784ab6ef8faa178155611831565b50600090565b600081836137c85760405162461bcd60e51b8152602060048201818152835160248401528351909283926044909101919085019080838360008315612ca9578181015183820152602001612c91565b5060008385816137d457fe5b0495945050505050565b8051610af49060029060208401905b828054600181600116156101000203166002900490600052602060002090601f016020900481019282601f1061382e57805160ff191683800117855561385b565b8280016001018555821561385b579182015b8281111561385b578251825591602001919060010190613840565b50611ff0929150613896565b6040518060a0016040528060008152602001600081526020016000815260200160008152602001600081525090565b61183191905b80821115611ff0576000815560010161389c56fe2673796d626f6c3d45544826636f6e766572743d45555226434d435f50524f5f4150495f4b45593d247b5b646563727970745d20424f484159687854304e66785a587a4961654b505878736355723852494b442f583458615161527a54486851657632367478784e376533734b696a41356b45656354524a794832346d567a48424b6935432f44675165756a71384a4a316b5a784167616f30777765565156686c744f7a6c6776367734467746354a786238616770682b427664487a47704a5050586d39673651426431424e76466e797d292e646174612e71756f74652e4555522e7072696365275d5b55524c5d205b276a736f6e2868747470733a2f2f6d792d6a736f6e2d7365727665722e74797069636f64652e636f6d2f247b5b646563727970745d204249643553645037494a647752754f5356444d69574155752b7949675361687756676766614f786475694f6646655a47635645623949544d503043394d70506d2b306c627a7a44354b616374516a6d57534563713474334e396e4379716564304d4549304439304b417a4c4a456954344d374f4f67726650573278425052584542786f537d292e302e70726963652e455552275d4d696e696d756e207072696365206d757374206265206174206c6561737420312063656e744f6e6c792061207265717565737420697320616c6c6f772065766572792031302e30303020626c6f636b73c4dc360d0a9c0677a3379ae0a3d81e887f761e65fdf3d7e00859d1bcd3c473895b55524c5d205b276a736f6e2868747470733a2f2f7777772e7175616e646c2e636f6d2f6170692f76332f64617461736574732f4f5045432f4f52423f6170695f6b65793d247b5b646563727970745d20424f5859336d734c4a6c62324f30306c3951476267622b6d764a357343584e4e376d75505831686b496d2b6370354c64615643426d656a6a623063744a577541426b6a77776c52486551597362536733646d7a707a6e624f7175476f58466f663058414c3364663851552f6f5a7a4b4c702b6b464f5a764e42587167784d6c68346e2b777239513d7d26726f77733d31292e646174617365742e646174612e302e31275d50726f7661626c6520717565727920776173204e4f542073656e742c20706c656173652061646420736f6d652045544820746f20636f76657220666f7220746865207175657279206665652673796d626f6c3d55534426636f6e766572743d45555226434d435f50524f5f4150495f4b45593d247b5b646563727970745d20424f484159687854304e66785a587a4961654b505878736355723852494b442f583458615161527a54486851657632367478784e376533734b696a41356b45656354524a794832346d567a48424b6935432f44675165756a71384a4a316b5a784167616f30777765565156686c744f7a6c6776367734467746354a786238616770682b427664487a47704a5050586d39673651426431424e76466e797d292e646174612e71756f74652e4555522e7072696365275d5b55524c5d205b276a736f6e2868747470733a2f2f70726f2d6170692e636f696e6d61726b65746361702e636f6d2f76312f746f6f6c732f70726963652d636f6e76657273696f6e3f616d6f756e743d4d696e696d756e20706f696e74732076616c7565206973206e6f742067726561746572207468616e207a65726f526f6c65733a206163636f756e7420646f6573206e6f74206861766520726f6c654d656469756d206c696d6974206d757374206265206c6f776572207468616e2068696768206c696d69744c6f77206c696d6974206d757374206265206c6f776572207468616e206d656469756d206c696d6974536166654d6174683a206d756c7469706c69636174696f6e206f766572666c6f77526f6c65733a206163636f756e7420697320746865207a65726f20616464726573735b55524c5d205b276a736f6e2868747470733a2f2f7777772e7175616e646c2e636f6d2f6170692f76332f64617461736574732f4f44412f50414c554d5f5553443f6170695f6b65793d247b5b646563727970745d20424f5859336d734c4a6c62324f30306c3951476267622b6d764a357343584e4e376d75505831686b496d2b6370354c64615643426d656a6a623063744a577541426b6a77776c52486551597362536733646d7a707a6e624f7175476f58466f663058414c3364663851552f6f5a7a4b4c702b6b464f5a764e42587167784d6c68346e2b777239513d7d26726f77733d31292e646174617365742e646174612e302e31275d6a736f6e28687474703a2f2f776f726c64636c6f636b6170692e636f6d2f6170692f6a736f6e2f7574632f6e6f77292e63757272656e744461746554696d654d6178696d756e20706f696e74732076616c7565206973206e6f742076616c696441646d696e526f6c653a2063616c6c657220646f6573206e6f742068617665207468652041646d696e20726f6c6526636f6c3d3126626173653d313026666f726d61743d706c61696e26726e643d6e65774d61782076616c7565206973206e6f742067726561746572207468616e204d696e2076616c7565af2d099f0008d306cd5867bf086db36da05b2af7c991726cbbe57cb560f2912350726f7661626c65204e4553544544207175657279207761732073656e742c207374616e64696e6720627920666f722074686520616e737765722e2e2e50726f7661626c652055524c207175657279207761732073656e742c207374616e64696e6720627920666f722074686520616e737765722e2e2e4d696e696d756e204574686572207072696365206d757374206265206174206c6561737420312063656e744554482062616c616e6365206973206e6f7420656e6f75676820746f20636f76657220666f72207468652071756572792066656568747470733a2f2f7777772e72616e646f6d2e6f72672f696e7465676572732f3f6e756d3d31266d696e3da265627a7a723158208b79057759f9448b03914b6f580b7cd77d079ae2fa18a36eceae8683aacc32e064736f6c634300050c0032",
  "source": "pragma solidity >= 0.5.0 < 0.6.0;\n\nimport \"./provableAPI_0.5.sol\";\nimport \"../node_modules/openzeppelin-solidity/contracts/math/SafeMath.sol\";\nimport \"./AdminRole.sol\";\n\ncontract CustomOracle is usingProvable, AdminRole {\n\n    using SafeMath for uint;\n\t\n\t// ** Constantes **\n\tuint constant private MAX_VALUE_LIMIT = 1000;\n\tuint constant private GAS_LIMIT_LOW = 150000;\n\tuint constant private GAS_LIMIT_MED = 200000;\n\tuint constant private GAS_LIMIT_HIGH = 400000;\n\tuint constant private BLOCKS_PERIOD = 6000;\n\t//uint constant private BLOCKS_REQUEST_ALLOW = 2000;\n\tuint constant private BLOCKS_REQUEST_ALLOW = 0;\n\t//\n\tuint constant private DECIMAL_POS = 4;\n\tuint constant private DEC_POS_DIV = 10000;\n\tuint constant private ONE_CENT = 100;\n\tuint constant private PACKAGING_ITEMS = 3;\n\tuint constant private PACK1 = 0;\n\tuint constant private PACK2 = 1;\n\tuint constant private PACK3 = 2;\n\n    // TEST \n    uint256 public randomNumber;\n    uint public rateETHEUR;\n    uint public rateUSDEUR;\n    uint public aluminumPrice;\n    uint public oilPrice;\n    uint public petPrice;\n    string public dateTime;\n    \n    uint private lastReqRANDOM;\n    uint private lastReqOIL;\n    uint private lastReqPET;\n    uint private lastReqALUMINUM;\n    uint private lastReqETHEUR;\n    uint private lastReqUSDEUR;\n    uint private lastReqDATE;    \n\n    // ** Tipos posibles de queries enviadas por el orculo **\n    enum QueryType{ \n        RANDOM,         // Nmero aleatorio\n        OIL,            // Precio petrleo\n        PET,            // Precio plstico PET\n        ALUMINUM,       // Precio aluminio\n        ETHEUR,         // Tipo de cambio Ether - Euro\n        USDEUR,         // Tipo de cambio US Dlar - Euro\n        DATE            // Fecha y hora actual\n    }\n    \n    // ** Datos queries en progreso\n    struct queryData {\n        bool inProgress;\n        QueryType qType;\n    }\n    \n    // ** Contador de queries en progreso (enviadas al orculo y pendiente de recibir respuesta)\n    // ** Sirve para controlar si hay queries que se estn quedando sin respuesta\n    uint public countQueryInProgress;\n    \n    // ** Mapping para el control de queries en progreso\n    mapping (bytes32 => queryData) private queryInProgress;\n\n    // ** Struct con campos asociados a los puntos dados por envase\n    struct PointsPerPackaging {\n        uint pointsPerPack;\n        uint pointsMin;\n        uint pointsMax;\n        uint priceMin;\n        uint priceMax;\n    }\n    \n    // ** Array con informacin campos asociados a los puntos dados por envase\n    PointsPerPackaging[PACKAGING_ITEMS] public packaging;\n    \n    uint public priceEthMin;\n    uint public priceEthMax;\n    uint public rangeEthPrice;\n    uint public prevBlock;\n    \n    uint public gasLimitLow;\n    uint public gasLimitMed;\n    uint public gasLimitHigh;\n    uint public blocksPeriod;\n    \n    address payable public owner;\n\n    // ** Eventos\n    event LogNewProvableQuery(string description);\n    event generateNewValue(string description, string value);\n    event generatedRandomNumber(uint256 randomNumber);\n    event currentDateTime(string currentDateTime);\n    event newPointsReward(string packaging, uint points);\n    \n    constructor()\n        payable\n        public\n    {\n        owner = msg.sender;\n        gasLimitLow = GAS_LIMIT_LOW;\n        gasLimitMed = GAS_LIMIT_MED;\n        gasLimitHigh = GAS_LIMIT_HIGH;\n        blocksPeriod = BLOCKS_PERIOD;\n        \n        initializePointsArray();        \n    }\n    \n    /**\n     * @dev Calcula el total de puntos que corresponden segn la cantidad de envases entregados\n     * \n     * @param _pack1Qty     Cantidad envases pack1\n     * @param _pack2Qty     Cantidad envases pack2\n     * @param _pack3Qty     Cantidad envases pack3\n     * @return _totalPoints Total de puntos\n     * \n     **/ \n    function calculatePoints(uint _pack1Qty, uint _pack2Qty, uint _pack3Qty) public view returns(uint _totalPoints) {\n\n        if (_pack1Qty.add(_pack2Qty).add(_pack3Qty) > 0) {\n            _totalPoints = _pack1Qty.mul(packaging[PACK1].pointsPerPack).add(\n                           _pack2Qty.mul(packaging[PACK2].pointsPerPack).add(\n                           _pack3Qty.mul(packaging[PACK3].pointsPerPack)));\n        } else {\n            _totalPoints = 0;\n        }\n        \n    }\n    \n    /**\n     * @dev Devuelve el nmero de puntos que corresponde a cada uno de los envases\n     * \n     * @return _pointsPack1 Puntos por pack1\n     * @return _pointsPack2 Puntos por pack2\n     * @return _pointsPack3 Puntos por pack3\n     **/\n    function getPointsPerPack() public view returns(uint _pointsPack1, uint _pointsPack2, uint _pointsPack3) {\n        _pointsPack1 = packaging[PACK1].pointsPerPack;\n        _pointsPack2 = packaging[PACK2].pointsPerPack;\n        _pointsPack3 = packaging[PACK3].pointsPerPack;\n    }\n    \n    /**\n     * @dev Permite especificar el nmero de bloques que debern confirmarse antes de volver a actualizar la informacin de puntos.\n     * \n     * @param _blocksPeriod Nmero de bloques (Si _blocksPeriod = 0, se tomar el valor por defecto)\n     **/\n    function setBlocksPeriod(uint _blocksPeriod) public onlyAdmin {\n        \n        if (_blocksPeriod == 0) {\n            blocksPeriod = BLOCKS_PERIOD;    \n        } else {\n            blocksPeriod = _blocksPeriod;\n        }\n    }\n    \n    /**\n     * @dev Inicializa con el valor 1 los puntos que se asignarn por defecto a los distintos tipos de envases\n     **/\n    function initializePointsArray() internal {\n        \n        for (uint _ind = 0; _ind < PACKAGING_ITEMS; _ind++) {\n            packaging[_ind].pointsPerPack = 1;\n            packaging[_ind].pointsMin = 1;\n            packaging[_ind].pointsMax = 1;\n        }\n    }\n\n    /**\n     * @dev Actualiza las variables para el limite de gas utilizadas en el envo de queries al orculo\n     * \n     * Se establecen tres posibles niveles:\n     * @param _lowLimit Lmite bajo (Utilizado en DATE)\n     * @param _medLimit Lmite medio (Utilizado en RANDOM, USDEUR, OIL)\n     * @param _highLimit Lmite alto (Utilizado en ALUMINUM, ETHEUR, PET)\n     **/    \n    function setGasLimit(uint _lowLimit, uint _medLimit, uint _highLimit) public onlyAdmin {\n        require(_lowLimit >= GAS_LIMIT_LOW, \"Gas limit (low) is too low\");\n        require(_lowLimit < _medLimit, \"Low limit must be lower than medium limit\");\n        require(_medLimit >= GAS_LIMIT_MED, \"Gas limit (med) is too low\");\n        require(_medLimit < _highLimit, \"Medium limit must be lower than high limit\");\n        require(_highLimit >= GAS_LIMIT_HIGH, \"Gas limit (high) is too low\");\n        \n        gasLimitLow = _lowLimit;\n        gasLimitMed = _medLimit;\n        gasLimitHigh = _highLimit;\n    }\n\n    /**\n     * \n     * @dev El clculo de los puntos se hace asumiendo 4 posiciones decimales para todos los campos con precios\n     *      Por tanto, para que un campo tenga el valor 1, se deber enviar 10000.\n     * \n     * @param _ind Indice del elemento dentro de packaging que se quiere modificar\n     * @param _pointsMin Nmero mnimo de puntos a entregar por cada envase\n     * @param _pointsMax Nmero mximo de puntos a entregar por cada envase\n     * @param _priceMin Valor mnimo del precio utilizado como referencia para el clculo de puntos\n     * @param _priceMax Valor mximo del precio utilizado como referencia para el clculo de puntos\n     **/ \n    function setPointsPerPackaging(uint _ind, uint _pointsMin, uint _pointsMax, uint _priceMin, uint _priceMax) public onlyAdmin {\n\t\trequire(_ind >= 0 && _ind < PACKAGING_ITEMS, \"Index value is not valid\");\n\t\trequire(_pointsMin > 0, \"Minimun points value is not greater than zero\");\n\t\trequire(_pointsMax < MAX_VALUE_LIMIT, \"Maximun points value is not valid\");\n\t\trequire(_pointsMin <= _pointsMax, \"Values for points are not valid\");\t\t\n\t\trequire(_priceMin > ONE_CENT, \"Minimun price must be at least 1 cent\");\n\t\trequire(_priceMin <= _priceMax, \"Value for prices are not valid\");\n\n        packaging[_ind].pointsPerPack = _pointsMin;\n        packaging[_ind].pointsMin = _pointsMin; \n        packaging[_ind].pointsMax = _pointsMax;\n        packaging[_ind].priceMin = _priceMin;\n        packaging[_ind].priceMax = _priceMax;\n    }\n    \n    /**\n     * @dev Actualiza los valores para el rango de precios del Ether utilizado como referencia para el clculo de puntos\n     * \n     * @param _priceEthMin Valor mnimo del precio del Ether utilizado como referencia para el clculo de puntos\n     * @param _priceEthMax Valor mximo del precio del Ether utilizado como referencia para el clculo de puntos\n     **/\n    function setRangeEthPrice(uint _priceEthMin, uint _priceEthMax) public onlyAdmin {\n\t\trequire(_priceEthMin > ONE_CENT, \"Minimun Ether price must be at least 1 cent\");\n\t\trequire(_priceEthMin <= _priceEthMax, \"Value for prices are not valid\");        \n        \n        priceEthMin = _priceEthMin;\n        priceEthMax = _priceEthMax;\n        \n        // Calcula el rango entre precio mnimo y precio mximo del Ether\n        rangeEthPrice = priceEthMax.sub(priceEthMin);\n    }\n    \n    /**\n     * @dev Comprueba mediante el nmero del bloque si se deben actualizar los precios utilizados como referencia\n     *      para el clculo de puntos entregados por envase\n     **/\n\tfunction checkNextProcess() public onlyAdmin {\n\t\n\t\tif (prevBlock + blocksPeriod < block.number) {\n\t\t\t\n\t\t\tprevBlock = block.number;\n\t\t\n\t\t\tnewEthEurRateRequest(1);\n\t\t\tnewPetPriceRequest();\n\t\t\tnewAluminumPriceRequest();\n\t\t}\n\t}\n\n    /**\n     * @dev Trata la respuesta a la query enviada al orculo\n     **/\n    function __callback(\n        bytes32 _queryId,\n        string memory _result\n    )\n        public\n    {\n        require(msg.sender == provable_cbAddress(), 'Sender is not valid');\n        require(queryInProgress[_queryId].inProgress == true, 'Query not found');\n\n        if (queryInProgress[_queryId].qType == QueryType.RANDOM) {\n            \n            randomNumber = parseInt(_result);\n            emit generatedRandomNumber(randomNumber);\n            \n        } else if (queryInProgress[_queryId].qType == QueryType.OIL) {\n            \n            oilPrice = parseInt(_result, DECIMAL_POS);\n            emit generateNewValue(\"OIL\", _result);\n            \n        } else if (queryInProgress[_queryId].qType == QueryType.PET) {\n            \n            petPrice = parseInt(_result, DECIMAL_POS);\n            emit generateNewValue(\"PET\", _result);\n            \n        } else if (queryInProgress[_queryId].qType == QueryType.ALUMINUM) {\n            \n            aluminumPrice = parseInt(_result, DECIMAL_POS);\n            emit generateNewValue(\"ALUMINUM\", _result);\n\n        } else if (queryInProgress[_queryId].qType == QueryType.ETHEUR) {\n            \n            rateETHEUR = parseInt(_result, DECIMAL_POS);\n            emit generateNewValue(\"ETHEUR\", _result);\n            \n        } else if (queryInProgress[_queryId].qType == QueryType.USDEUR) {\n            \n            rateUSDEUR = parseInt(_result, DECIMAL_POS);\n            emit generateNewValue(\"USDEUR\", _result);            \n            \n        } else if (queryInProgress[_queryId].qType == QueryType.DATE) {\n            \n            dateTime = _result;\n            emit currentDateTime(_result);\n            \n        }\n        \n        delete queryInProgress[_queryId];\n        countQueryInProgress = countQueryInProgress.sub(1);\n        \n        if (petPrice > 0 && rateETHEUR > 0) {\n\n            packaging[PACK1] = calculatePointsReward(petPrice, rateETHEUR, packaging[PACK1]);\n            packaging[PACK2] = calculatePointsReward(petPrice, rateETHEUR, packaging[PACK2]);\n            \n            emit newPointsReward(\"PACK1\", packaging[PACK1].pointsPerPack);\n            emit newPointsReward(\"PACK2\", packaging[PACK2].pointsPerPack);\n\n            petPrice = 0;\n        }\n        \n        if (aluminumPrice > 0 && rateETHEUR > 0) {\n            \n            packaging[PACK3] = calculatePointsReward(aluminumPrice, rateETHEUR, packaging[PACK3]);\n            \n            emit newPointsReward(\"PACK3\", packaging[PACK3].pointsPerPack);\n            \n            aluminumPrice = 0;            \n        }\n    }\n\n    /**\n     * @dev Actualiza la cantidad de puntos a entregar por envase segn los parmetros de entrada\n     * \n     * @param _price Precio utilizado como referencia\n     * @param _priceEth Precio del Ether\n     * @param _ppp Variable struct con los valores asociados a los puntos\n     * \n     * @return _ppp Devuelve la variable struct actualizada\n     **/\n    function calculatePointsReward(\n        uint _price, \n        uint _priceEth, \n        PointsPerPackaging memory _ppp\n    ) \n        internal \n        returns (PointsPerPackaging memory)\n    {\n\t\trequire(_price > 0, \"Price can not be zero\");\n\t\trequire(_priceEth > 0, \"Ether price can not be zero\");\n\t\t\n        uint _rangePoints = 0;\n        uint _rangePrice = 0;\n        uint _diffPrice = 0;\n        uint _diffEthPrice = 0;\n        uint _pointsPerPrice = 0;\n        uint _pointsPerEth = 0;\n\n        // ** Calcula diferencia entre el precio mnimo y el precio actual de referencia\n        if (_ppp.priceMin < _price && _ppp.priceMin != 0) {\n            _diffPrice = _price.sub(_ppp.priceMin);\n            if (_ppp.priceMax < _price) {\n                _ppp.priceMax = _price;\n            }\n        } else {\n            _ppp.priceMin = _price;\n        }\n            \n        // ** Calcula diferencia entre el precio mnimo y el precio actual del Ether\n        if (priceEthMin < _priceEth && priceEthMin != 0) {\n            _diffEthPrice = _priceEth.sub(priceEthMin);\n         } else {\n            priceEthMin = _priceEth;\n        }  \n\n        if (priceEthMax < _priceEth) {\n            priceEthMax = _priceEth;\n        }\n        rangeEthPrice = priceEthMax.sub(priceEthMin);\n\n        // ** Calcula rango entre precio mnimo y precio mximo\n        if (_ppp.priceMin < _ppp.priceMax) {\n            _rangePrice = _ppp.priceMax.sub(_ppp.priceMin);\n        } else {\n            _ppp.priceMax = _ppp.priceMin;\n        }\n\n        // ** Calcula el rango entre el mnimo y mximo de puntos que se pueden asignar\n        if (_ppp.pointsMin < _ppp.pointsMax) {\n\t\t\n            _rangePoints = _ppp.pointsMax.sub(_ppp.pointsMin);\n\t\t\t\n\t\t\t// ** Calcula el reparto del rango de precios entre el rango de puntos (tramos) y\n\t\t\t// ** en base a ellos calcula el factor que indica el tramo del precio actual\n\t\t\t// ** Multiplica por DEC_POS_DIV para no perder los decimales\n\t\t\tif (_rangePrice > 0) {\n\t\t\t\t_pointsPerPrice = _diffPrice.mul(DEC_POS_DIV).div(_rangePrice.div(_rangePoints));            \n\t\t\t}\n\t\t\t\n\t\t\tif (rangeEthPrice > 0){\n\t\t\t\t_pointsPerEth = _diffEthPrice.mul(DEC_POS_DIV).div(rangeEthPrice.div(_rangePoints));\n\t\t\t}\n\t\t\t\n        } else {\n            _ppp.pointsMax = _ppp.pointsMin;\n        }\n            \n        // ** Puntos = Puntos mnimos + factor - factor Eth\n        _ppp.pointsPerPack = _ppp.pointsMin.mul(DEC_POS_DIV).add(_pointsPerPrice).sub(_pointsPerEth).div(DEC_POS_DIV);\n\n        // ** Se valida se mantenga en el rango de puntos establecidos\n        if (_ppp.pointsPerPack < _ppp.pointsMin) {\n            _ppp.pointsPerPack = _ppp.pointsMin;\n        } else if (_ppp.pointsPerPack > _ppp.pointsMax) {\n            _ppp.pointsPerPack = _ppp.pointsMax;\n        }\n            \n        return (_ppp);\n    }        \n    \n    /**\n     * @dev Prepara query para solicitar nmero aleatorio\n     * \n     * @param _min Valor mnimo del rango\n     * @param _max Valor mximo del rango\n     */\n    function newRandomRequest(uint _min, uint _max)\n        payable\n        public\n    {\n        require(_max > _min, \"Max value is not greater than Min value\");\n        require(lastReqRANDOM + BLOCKS_REQUEST_ALLOW < block.number, \"Only a request is allow every 10.000 blocks\");\n\n        string memory query = string(abi.encodePacked(\"https://www.random.org/integers/?num=1&min=\", uint2str(_min), \"&max=\", uint2str(_max), \"&col=1&base=10&format=plain&rnd=new\"));\n        queryURLRequest(query, QueryType.RANDOM, gasLimitMed);\n        lastReqRANDOM = block.number;\n    }\n    \n    /**\n     * @dev Prepara query para convertir un importe en Ethers a Euros\n     * \n     * @param _amount Importe a convertir (1 para obtener tipo de cambio)\n     */\n    function newEthEurRateRequest(uint _amount)\n        payable\n        public\n    {\n        require(_amount > 0, \"Amount is not greater than zero\");\n        require(lastReqETHEUR + BLOCKS_REQUEST_ALLOW < block.number, \"Only a request is allow every 10.000 blocks\");\n        \n        // ** Se construye la query con el importe (_amount) enviado como parmetro\n        // ** La apiKey ha sido cifrada con la clave pblica de Provable\n        string memory query = string(abi.encodePacked(\"[URL] ['json(https://pro-api.coinmarketcap.com/v1/tools/price-conversion?amount=\", uint2str(_amount),\"&symbol=ETH&convert=EUR&CMC_PRO_API_KEY=${[decrypt] BOHAYhxT0NfxZXzIaeKPXxscUr8RIKD/X4XaQaRzTHhQev26txxN7e3sKijA5kEecTRJyH24mVzHBKi5C/DgQeujq8JJ1kZxAgao0wweVQVhltOzlgv6w4FwF5Jxb8agph+BvdHzGpJPPXm9g6QBd1BNvFny}).data.quote.EUR.price']\"));\n        \n        queryNestedRequest(query, QueryType.ETHEUR, gasLimitHigh);\n        lastReqETHEUR = block.number;\n    }\n\n    /**\n     * @dev Prepara query para convertir un importe en US Dolars a Euros\n     * \n     * @param _amount Importe a convertir (1 para obtener tipo de cambio)\n     */    \n    function newUsdEurRateRequest(uint _amount)\n        payable\n        public\n    {\n        require(_amount > 0, \"Amount is not greater than zero\");\n        require(lastReqUSDEUR + BLOCKS_REQUEST_ALLOW < block.number, \"Only a request is allow every 10.000 blocks\");\n\n        // ** Se construye la query con el importe (_amount) enviado como parmetro\n        // ** La apiKey ha sido cifrada con la clave pblica de Provable\n        string memory query = string(abi.encodePacked(\"[URL] ['json(https://pro-api.coinmarketcap.com/v1/tools/price-conversion?amount=\", uint2str(_amount),\"&symbol=USD&convert=EUR&CMC_PRO_API_KEY=${[decrypt] BOHAYhxT0NfxZXzIaeKPXxscUr8RIKD/X4XaQaRzTHhQev26txxN7e3sKijA5kEecTRJyH24mVzHBKi5C/DgQeujq8JJ1kZxAgao0wweVQVhltOzlgv6w4FwF5Jxb8agph+BvdHzGpJPPXm9g6QBd1BNvFny}).data.quote.EUR.price']\"));\n        \n        queryNestedRequest(query, QueryType.USDEUR, gasLimitMed);\n        lastReqUSDEUR = block.number;\n    }    \n    \n    function newPetPriceRequest()\n        payable\n        public\n    {    \n        require(lastReqPET + BLOCKS_REQUEST_ALLOW < block.number, \"Only a request is allow every 10.000 blocks\");\n        \n        string memory query = string(abi.encodePacked(\"[URL] ['json(https://my-json-server.typicode.com/${[decrypt] BId5SdP7IJdwRuOSVDMiWAUu+yIgSahwVggfaOxduiOfFeZGcVEb9ITMP0C9MpPm+0lbzzD5KactQjmWSEcq4t3N9nCyqed0MEI0D90KAzLJEiT4M7OOgrfPW2xBPRXEBxoS}).0.price.EUR']\"));\n        \n        queryNestedRequest(query, QueryType.PET, gasLimitHigh);\n        lastReqPET = block.number;\n    }\n    \n    function newAluminumPriceRequest()\n        payable\n        public\n    {\n        require(lastReqALUMINUM + BLOCKS_REQUEST_ALLOW < block.number, \"Only a request is allow every 10.000 blocks\");\n        \n        // La apiKey ha sido cifrada con la clave pblica de Provable\n        string memory query = string(abi.encodePacked(\"[URL] ['json(https://www.quandl.com/api/v3/datasets/ODA/PALUM_USD?api_key=${[decrypt] BOXY3msLJlb2O00l9QGbgb+mvJ5sCXNN7muPX1hkIm+cp5LdaVCBmejjb0ctJWuABkjwwlRHeQYsbSg3dmzpznbOquGoXFof0XAL3df8QU/oZzKLp+kFOZvNBXqgxMlh4n+wr9Q=}&rows=1).dataset.data.0.1']\"));\n        \n        queryNestedRequest(query, QueryType.ALUMINUM, gasLimitHigh);\n        lastReqALUMINUM = block.number;\n    }\n    \n    function newOilPriceRequest()\n        payable\n        public\n    {\n        require(lastReqOIL + BLOCKS_REQUEST_ALLOW < block.number, \"Only a request is allow every 10.000 blocks\");\n        \n        // La apiKey ha sido cifrada con la clave pblica de Provable\n        string memory query = string(abi.encodePacked(\"[URL] ['json(https://www.quandl.com/api/v3/datasets/OPEC/ORB?api_key=${[decrypt] BOXY3msLJlb2O00l9QGbgb+mvJ5sCXNN7muPX1hkIm+cp5LdaVCBmejjb0ctJWuABkjwwlRHeQYsbSg3dmzpznbOquGoXFof0XAL3df8QU/oZzKLp+kFOZvNBXqgxMlh4n+wr9Q=}&rows=1).dataset.data.0.1']\"));\n        \n        queryNestedRequest(query, QueryType.OIL, gasLimitMed);\n        lastReqOIL = block.number;\n    }\n    \n    function getCurrentDateTime() \n        payable\n        public\n    {\n        require(lastReqDATE + BLOCKS_REQUEST_ALLOW < block.number, \"Only a request is allow every 10.000 blocks\");\n        \n        string memory query = \"json(http://worldclockapi.com/api/json/utc/now).currentDateTime\";\n        \n        queryURLRequest(query, QueryType.DATE, gasLimitLow);\n        lastReqDATE = block.number;\n    }\n\n    /**\n     * \n     * @dev Envo de query al orculo con una URL simple\n     * \n     * @param _query Query a enviar \n     * @param _qType Tipo de query que se enva (para control en callback)\n     * @param _gasLimit Lmite de gas\n     */ \n    function queryURLRequest(string memory _query, QueryType _qType, uint _gasLimit) internal {\n        require(bytes(_query).length > 0,\"Query is empty\");\n        \n        bytes32 _queryId;\n\n        // ** Comprobamos si el contrato tiene saldo suficiente para el pago de la llamada al orculo\n        if (provable_getPrice(\"URL\", _gasLimit) > address(this).balance) {\n            \n            emit LogNewProvableQuery(\"Provable query was NOT sent, please add some ETH to cover for the query fee\");\n            revert(\"ETH balance is not enough to cover for the query fee\");\n            \n        } else {\n        \n            _queryId = provable_query(\"URL\", _query, _gasLimit);\n\n            emit LogNewProvableQuery(\"Provable URL query was sent, standing by for the answer...\");\n\n            includeQueryInProgress(_queryId, _qType);\n        }\n    }\n    \n    /**\n     * @dev Envo de query al orculo con una URL compuesta (Nested - con parmetros o datos cifrados)\n     * \n     * @param _query Query a enviar \n     * @param _qType Tipo de query que se enva (para control en callback)\n     * @param _gasLimit Lmite de gas\n     */\n    function queryNestedRequest(string memory _query, QueryType _qType, uint _gasLimit) internal {\n        require(bytes(_query).length > 0,\"Query is empty\");\n        \n        bytes32 _queryId;\n\n        // ** Comprobamos si el contrato tiene saldo suficiente para el pago de la llamada al orculo\n        if (provable_getPrice(\"NESTED\", _gasLimit) > address(this).balance) {\n            \n            emit LogNewProvableQuery(\"Provable query was NOT sent, please add some ETH to cover for the query fee\");\n            revert(\"ETH balance is not enough to cover for the query fee\");\n            \n        } else {\n            \n            // Enviamos la query a Provable y guardamos el Id para tratarlo en el callback\n            _queryId = provable_query(\"nested\", _query, _gasLimit);\n\n            emit LogNewProvableQuery(\"Provable NESTED query was sent, standing by for the answer...\");\n\n            includeQueryInProgress(_queryId, _qType);\n        }\n    }    \n    \n    function includeQueryInProgress(bytes32  _queryId, QueryType _qType) internal {\n    \n        queryInProgress[_queryId].inProgress = true;\n        queryInProgress[_queryId].qType = _qType;   \n        countQueryInProgress = countQueryInProgress.add(1);\n    }\n    \n    /**\n      * @dev Funcin utilizada para transferir fondos (Ethers) al contrato\n      * \n      * @param _message  Mensaje que se desea enviar\n      * @return _message Devuelve el mismo mensaje de entrada\n      */\n    function setFunds(string memory _message) public payable returns(string memory) {\n        require (msg.value > 0, \"value is not greater than zero\");\n\n        return _message;\n    }\n\n    /**\n      * @dev Funcin para transferir el saldo en Ethers del contrato al owner\n      * \n      * @param _amount Importe a transferir\n      */\n    function transfer(uint _amount) public onlyAdmin {\n        require (address(this).balance >= _amount, \"not enough balance\");\n\n        owner.transfer(_amount);\n    }\n    \n    /**\n      * @dev Funcin para consultar el saldo en Ethers del contrato (necesario para el pago de gas para el Orculo)\n      * \n      * @return Saldo tokens de la cuenta con que se est trabajando\n      */\n    function getContractBalance() public view returns(uint) {\n        return address(this).balance;\n    }\n    \n    /**\n      * @dev Fallback function - Called if other functions don't match call or\n      * sent ether without data\n      * Typically, called when invalid data is sent\n      * Added so ether sent to this contract is reverted if the contract fails\n      * otherwise, the sender's money is transferred to contract\n      */\n    function () external payable {\n        revert(\"Fallback function\");\n    }    \n}",
  "sourcePath": "/home/cesar/master/pfm/dapp-principal/truffle/contracts/CustomOracle.sol",
  "compiler": {
    "name": "solc",
    "version": "0.5.12+commit.7709ece9.Emscripten.clang"
  },
  "schemaVersion": "3.0.19",
  "updatedAt": "2020-01-04T10:47:15.967Z",
  "networkType": "ethereum",
  "devdoc": {
    "methods": {
      "__callback(bytes32,string)": {
        "details": "Trata la respuesta a la query enviada al orculo*"
      },
      "calculatePoints(uint256,uint256,uint256)": {
        "details": "Calcula el total de puntos que corresponden segn la cantidad de envases entregados ",
        "params": {
          "_pack1Qty": "Cantidad envases pack1",
          "_pack2Qty": "Cantidad envases pack2",
          "_pack3Qty": "Cantidad envases pack3"
        },
        "return": "_totalPoints Total de puntos      *"
      },
      "checkNextProcess()": {
        "details": "Comprueba mediante el nmero del bloque si se deben actualizar los precios utilizados como referencia     para el clculo de puntos entregados por envase*"
      },
      "getContractBalance()": {
        "details": "Funcin para consultar el saldo en Ethers del contrato (necesario para el pago de gas para el Orculo) ",
        "return": "Saldo tokens de la cuenta con que se est trabajando"
      },
      "getPointsPerPack()": {
        "details": "Devuelve el nmero de puntos que corresponde a cada uno de los envases ",
        "return": "_pointsPack1 Puntos por pack1_pointsPack2 Puntos por pack2_pointsPack3 Puntos por pack3*"
      },
      "newEthEurRateRequest(uint256)": {
        "details": "Prepara query para convertir un importe en Ethers a Euros ",
        "params": {
          "_amount": "Importe a convertir (1 para obtener tipo de cambio)"
        }
      },
      "newRandomRequest(uint256,uint256)": {
        "details": "Prepara query para solicitar nmero aleatorio ",
        "params": {
          "_max": "Valor mximo del rango",
          "_min": "Valor mnimo del rango"
        }
      },
      "newUsdEurRateRequest(uint256)": {
        "details": "Prepara query para convertir un importe en US Dolars a Euros ",
        "params": {
          "_amount": "Importe a convertir (1 para obtener tipo de cambio)"
        }
      },
      "setBlocksPeriod(uint256)": {
        "details": "Permite especificar el nmero de bloques que debern confirmarse antes de volver a actualizar la informacin de puntos. ",
        "params": {
          "_blocksPeriod": "Nmero de bloques (Si _blocksPeriod = 0, se tomar el valor por defecto)*"
        }
      },
      "setFunds(string)": {
        "details": "Funcin utilizada para transferir fondos (Ethers) al contrato ",
        "params": {
          "_message": "Mensaje que se desea enviar"
        },
        "return": "_message Devuelve el mismo mensaje de entrada"
      },
      "setGasLimit(uint256,uint256,uint256)": {
        "details": "Actualiza las variables para el limite de gas utilizadas en el envo de queries al orculo      * Se establecen tres posibles niveles:",
        "params": {
          "_highLimit": "Lmite alto (Utilizado en ALUMINUM, ETHEUR, PET)*",
          "_lowLimit": "Lmite bajo (Utilizado en DATE)",
          "_medLimit": "Lmite medio (Utilizado en RANDOM, USDEUR, OIL)"
        }
      },
      "setPointsPerPackaging(uint256,uint256,uint256,uint256,uint256)": {
        "details": "El clculo de los puntos se hace asumiendo 4 posiciones decimales para todos los campos con precios     Por tanto, para que un campo tenga el valor 1, se deber enviar 10000. ",
        "params": {
          "_ind": "Indice del elemento dentro de packaging que se quiere modificar",
          "_pointsMax": "Nmero mximo de puntos a entregar por cada envase",
          "_pointsMin": "Nmero mnimo de puntos a entregar por cada envase",
          "_priceMax": "Valor mximo del precio utilizado como referencia para el clculo de puntos*",
          "_priceMin": "Valor mnimo del precio utilizado como referencia para el clculo de puntos"
        }
      },
      "setRangeEthPrice(uint256,uint256)": {
        "details": "Actualiza los valores para el rango de precios del Ether utilizado como referencia para el clculo de puntos ",
        "params": {
          "_priceEthMax": "Valor mximo del precio del Ether utilizado como referencia para el clculo de puntos*",
          "_priceEthMin": "Valor mnimo del precio del Ether utilizado como referencia para el clculo de puntos"
        }
      },
      "transfer(uint256)": {
        "details": "Funcin para transferir el saldo en Ethers del contrato al owner ",
        "params": {
          "_amount": "Importe a transferir"
        }
      }
    }
  },
  "userdoc": {
    "methods": {}
  }
}