{
  "contractName": "Deres",
  "abi": [
    {
      "inputs": [
        {
          "internalType": "address payable",
          "name": "customOracle_address",
          "type": "address"
        }
      ],
      "payable": false,
      "stateMutability": "nonpayable",
      "type": "constructor"
    },
    {
      "anonymous": false,
      "inputs": [
        {
          "indexed": true,
          "internalType": "address",
          "name": "account",
          "type": "address"
        }
      ],
      "name": "AdminAdded",
      "type": "event"
    },
    {
      "anonymous": false,
      "inputs": [
        {
          "indexed": true,
          "internalType": "address",
          "name": "account",
          "type": "address"
        }
      ],
      "name": "AdminRemoved",
      "type": "event"
    },
    {
      "anonymous": false,
      "inputs": [
        {
          "indexed": false,
          "internalType": "address",
          "name": "account",
          "type": "address"
        }
      ],
      "name": "Paused",
      "type": "event"
    },
    {
      "anonymous": false,
      "inputs": [
        {
          "indexed": true,
          "internalType": "address",
          "name": "account",
          "type": "address"
        }
      ],
      "name": "TracerAdded",
      "type": "event"
    },
    {
      "anonymous": false,
      "inputs": [
        {
          "indexed": true,
          "internalType": "address",
          "name": "account",
          "type": "address"
        }
      ],
      "name": "TracerRemoved",
      "type": "event"
    },
    {
      "anonymous": false,
      "inputs": [
        {
          "indexed": false,
          "internalType": "address",
          "name": "account",
          "type": "address"
        }
      ],
      "name": "Unpaused",
      "type": "event"
    },
    {
      "constant": true,
      "inputs": [
        {
          "internalType": "uint256",
          "name": "",
          "type": "uint256"
        }
      ],
      "name": "_QRBagList",
      "outputs": [
        {
          "internalType": "bytes32",
          "name": "",
          "type": "bytes32"
        }
      ],
      "payable": false,
      "stateMutability": "view",
      "type": "function"
    },
    {
      "constant": false,
      "inputs": [
        {
          "internalType": "address",
          "name": "account",
          "type": "address"
        }
      ],
      "name": "addAdmin",
      "outputs": [],
      "payable": false,
      "stateMutability": "nonpayable",
      "type": "function"
    },
    {
      "constant": false,
      "inputs": [
        {
          "internalType": "address",
          "name": "account",
          "type": "address"
        }
      ],
      "name": "addTracer",
      "outputs": [],
      "payable": false,
      "stateMutability": "nonpayable",
      "type": "function"
    },
    {
      "constant": true,
      "inputs": [
        {
          "internalType": "address",
          "name": "account",
          "type": "address"
        }
      ],
      "name": "isAdmin",
      "outputs": [
        {
          "internalType": "bool",
          "name": "",
          "type": "bool"
        }
      ],
      "payable": false,
      "stateMutability": "view",
      "type": "function"
    },
    {
      "constant": true,
      "inputs": [
        {
          "internalType": "address",
          "name": "account",
          "type": "address"
        }
      ],
      "name": "isTracer",
      "outputs": [
        {
          "internalType": "bool",
          "name": "",
          "type": "bool"
        }
      ],
      "payable": false,
      "stateMutability": "view",
      "type": "function"
    },
    {
      "constant": true,
      "inputs": [
        {
          "internalType": "bytes32",
          "name": "",
          "type": "bytes32"
        }
      ],
      "name": "listQR_Bags",
      "outputs": [
        {
          "internalType": "bytes32",
          "name": "qr",
          "type": "bytes32"
        },
        {
          "internalType": "address",
          "name": "associated",
          "type": "address"
        },
        {
          "internalType": "bytes32",
          "name": "hashAssociatedName",
          "type": "bytes32"
        },
        {
          "internalType": "bytes32",
          "name": "nameRef",
          "type": "bytes32"
        },
        {
          "internalType": "uint256",
          "name": "item_1",
          "type": "uint256"
        },
        {
          "internalType": "uint256",
          "name": "item_2",
          "type": "uint256"
        },
        {
          "internalType": "uint256",
          "name": "item_3",
          "type": "uint256"
        },
        {
          "internalType": "string",
          "name": "status",
          "type": "string"
        },
        {
          "internalType": "uint256",
          "name": "date",
          "type": "uint256"
        }
      ],
      "payable": false,
      "stateMutability": "view",
      "type": "function"
    },
    {
      "constant": false,
      "inputs": [],
      "name": "pause",
      "outputs": [],
      "payable": false,
      "stateMutability": "nonpayable",
      "type": "function"
    },
    {
      "constant": true,
      "inputs": [],
      "name": "paused",
      "outputs": [
        {
          "internalType": "bool",
          "name": "",
          "type": "bool"
        }
      ],
      "payable": false,
      "stateMutability": "view",
      "type": "function"
    },
    {
      "constant": false,
      "inputs": [],
      "name": "renounceAdmin",
      "outputs": [],
      "payable": false,
      "stateMutability": "nonpayable",
      "type": "function"
    },
    {
      "constant": false,
      "inputs": [],
      "name": "renounceTracer",
      "outputs": [],
      "payable": false,
      "stateMutability": "nonpayable",
      "type": "function"
    },
    {
      "constant": false,
      "inputs": [],
      "name": "unpause",
      "outputs": [],
      "payable": false,
      "stateMutability": "nonpayable",
      "type": "function"
    },
    {
      "constant": false,
      "inputs": [
        {
          "internalType": "bytes32",
          "name": "hashName",
          "type": "bytes32"
        },
        {
          "internalType": "address",
          "name": "_associated_address",
          "type": "address"
        }
      ],
      "name": "addAssociated",
      "outputs": [],
      "payable": false,
      "stateMutability": "nonpayable",
      "type": "function"
    },
    {
      "constant": true,
      "inputs": [],
      "name": "getAssociatedList",
      "outputs": [
        {
          "internalType": "bytes32[]",
          "name": "",
          "type": "bytes32[]"
        }
      ],
      "payable": false,
      "stateMutability": "view",
      "type": "function"
    },
    {
      "constant": true,
      "inputs": [
        {
          "internalType": "bytes32",
          "name": "hashName",
          "type": "bytes32"
        }
      ],
      "name": "getAssociated",
      "outputs": [
        {
          "internalType": "address",
          "name": "contract_address",
          "type": "address"
        },
        {
          "internalType": "bool",
          "name": "enable",
          "type": "bool"
        }
      ],
      "payable": false,
      "stateMutability": "view",
      "type": "function"
    },
    {
      "constant": true,
      "inputs": [
        {
          "internalType": "bytes32",
          "name": "hashName",
          "type": "bytes32"
        },
        {
          "internalType": "address",
          "name": "associated_contract_address",
          "type": "address"
        }
      ],
      "name": "isAssociated",
      "outputs": [
        {
          "internalType": "bool",
          "name": "",
          "type": "bool"
        }
      ],
      "payable": false,
      "stateMutability": "view",
      "type": "function"
    },
    {
      "constant": false,
      "inputs": [
        {
          "internalType": "bytes32",
          "name": "hashName",
          "type": "bytes32"
        }
      ],
      "name": "disableAssociated",
      "outputs": [
        {
          "internalType": "bool",
          "name": "",
          "type": "bool"
        }
      ],
      "payable": false,
      "stateMutability": "nonpayable",
      "type": "function"
    },
    {
      "constant": false,
      "inputs": [
        {
          "internalType": "bytes32",
          "name": "hashName",
          "type": "bytes32"
        }
      ],
      "name": "enableAssociated",
      "outputs": [
        {
          "internalType": "bool",
          "name": "",
          "type": "bool"
        }
      ],
      "payable": false,
      "stateMutability": "nonpayable",
      "type": "function"
    },
    {
      "constant": false,
      "inputs": [
        {
          "internalType": "bytes32",
          "name": "hashName",
          "type": "bytes32"
        },
        {
          "internalType": "bytes32",
          "name": "hashedSecret",
          "type": "bytes32"
        }
      ],
      "name": "addUser",
      "outputs": [
        {
          "internalType": "bool",
          "name": "",
          "type": "bool"
        }
      ],
      "payable": false,
      "stateMutability": "nonpayable",
      "type": "function"
    },
    {
      "constant": true,
      "inputs": [
        {
          "internalType": "bytes32",
          "name": "user_hashcode",
          "type": "bytes32"
        }
      ],
      "name": "isUser",
      "outputs": [
        {
          "internalType": "bool",
          "name": "",
          "type": "bool"
        }
      ],
      "payable": false,
      "stateMutability": "view",
      "type": "function"
    },
    {
      "constant": true,
      "inputs": [
        {
          "internalType": "bytes32",
          "name": "user_hashcode",
          "type": "bytes32"
        }
      ],
      "name": "balanceOf",
      "outputs": [
        {
          "internalType": "uint256",
          "name": "",
          "type": "uint256"
        }
      ],
      "payable": false,
      "stateMutability": "view",
      "type": "function"
    },
    {
      "constant": false,
      "inputs": [
        {
          "internalType": "bytes32",
          "name": "hashAssociatedName",
          "type": "bytes32"
        },
        {
          "internalType": "bytes32",
          "name": "hashName",
          "type": "bytes32"
        },
        {
          "internalType": "uint256",
          "name": "generatedPoints",
          "type": "uint256"
        },
        {
          "internalType": "bytes32",
          "name": "hashedSecret",
          "type": "bytes32"
        }
      ],
      "name": "updateUserBalance",
      "outputs": [
        {
          "internalType": "bool",
          "name": "",
          "type": "bool"
        }
      ],
      "payable": false,
      "stateMutability": "nonpayable",
      "type": "function"
    },
    {
      "constant": true,
      "inputs": [
        {
          "internalType": "uint256",
          "name": "_pack1",
          "type": "uint256"
        },
        {
          "internalType": "uint256",
          "name": "_pack2",
          "type": "uint256"
        },
        {
          "internalType": "uint256",
          "name": "_pack3",
          "type": "uint256"
        }
      ],
      "name": "calculatePoints",
      "outputs": [
        {
          "internalType": "uint256",
          "name": "",
          "type": "uint256"
        }
      ],
      "payable": false,
      "stateMutability": "view",
      "type": "function"
    },
    {
      "constant": false,
      "inputs": [
        {
          "internalType": "bytes32",
          "name": "hashAssociatedName",
          "type": "bytes32"
        },
        {
          "internalType": "bytes32",
          "name": "user_hashcode",
          "type": "bytes32"
        },
        {
          "internalType": "uint256",
          "name": "amount",
          "type": "uint256"
        },
        {
          "internalType": "bytes32",
          "name": "hashedSecret",
          "type": "bytes32"
        }
      ],
      "name": "exchangePoints",
      "outputs": [
        {
          "internalType": "bool",
          "name": "",
          "type": "bool"
        }
      ],
      "payable": false,
      "stateMutability": "nonpayable",
      "type": "function"
    },
    {
      "constant": false,
      "inputs": [
        {
          "internalType": "bytes32",
          "name": "_hashAssociatedName",
          "type": "bytes32"
        },
        {
          "internalType": "bytes32",
          "name": "_QR",
          "type": "bytes32"
        },
        {
          "internalType": "address",
          "name": "_associated",
          "type": "address"
        },
        {
          "internalType": "bytes32",
          "name": "_nameRef",
          "type": "bytes32"
        },
        {
          "internalType": "uint256",
          "name": "_item_1",
          "type": "uint256"
        },
        {
          "internalType": "uint256",
          "name": "_item_2",
          "type": "uint256"
        },
        {
          "internalType": "uint256",
          "name": "_item_3",
          "type": "uint256"
        }
      ],
      "name": "addRecicledBag",
      "outputs": [
        {
          "internalType": "bool",
          "name": "",
          "type": "bool"
        }
      ],
      "payable": false,
      "stateMutability": "nonpayable",
      "type": "function"
    },
    {
      "constant": true,
      "inputs": [],
      "name": "getQRBagList",
      "outputs": [
        {
          "internalType": "bytes32[]",
          "name": "",
          "type": "bytes32[]"
        }
      ],
      "payable": false,
      "stateMutability": "view",
      "type": "function"
    },
    {
      "constant": false,
      "inputs": [
        {
          "internalType": "bytes32",
          "name": "_QR",
          "type": "bytes32"
        }
      ],
      "name": "updatedQRBagTruck",
      "outputs": [],
      "payable": false,
      "stateMutability": "nonpayable",
      "type": "function"
    },
    {
      "constant": false,
      "inputs": [
        {
          "internalType": "bytes32",
          "name": "_QR",
          "type": "bytes32"
        }
      ],
      "name": "updatedQRBagFacfory",
      "outputs": [],
      "payable": false,
      "stateMutability": "nonpayable",
      "type": "function"
    }
  ],
  "bytecode": "0x60806040523480156200001157600080fd5b5060405162003d7738038062003d77833981810160405260208110156200003757600080fd5b50516200005f620000506001600160e01b03620000b516565b6001600160e01b03620000b916565b6001805460ff191690556200008f620000806001600160e01b03620000b516565b6001600160e01b036200010b16565b600380546001600160a01b0319166001600160a01b039290921691909117905562000182565b3390565b620000d48160006200015d60201b62001b481790919060201c565b6040516001600160a01b038216907f44d6d25963f097ad14f29f06854a01f575648a1ef82f30e562ccd3889717e33990600090a250565b620001268160026200015d60201b62001b481790919060201c565b6040516001600160a01b038216907fee42164429e67869687bd6bb89c4b935a8c14abe726ab3d88e5a2246f7c395ca90600090a250565b6001600160a01b0316600090815260209190915260409020805460ff19166001179055565b613be580620001926000396000f3fe60806040523480156200001157600080fd5b5060043610620001d25760003560e01c80636c7f15421162000111578063b058f1cb11620000a5578063e3bd9f53116200007b578063e3bd9f531462000547578063eb55f56c146200062c578063ee0c96c51462000652578063f8c62cb5146200068457620001d2565b8063b058f1cb14620004e2578063c6465afa1462000511578063e055aeeb146200051b57620001d2565b8063760bb00611620000e7578063760bb006146200046b5780638456cb59146200048b5780638bad0c0a14620004955780638d154dde146200049f57620001d2565b80636c7f154214620003de57806370480275146200041057806374df0b60146200043957620001d2565b80633f4ba83a116200018957806352761ff0116200015f57806352761ff0146200034e57806352f762f614620003585780635c975abb14620003b4578063605070e614620003be57620001d2565b80633f4ba83a14620002d757806344997ac814620002e15780634b8302f7146200032e57620001d2565b806306f4fcc914620001d7578063071ab82114620002085780630d16fd6014620002315780631812df3614620002515780631b03da67146200027157806324d7806c14620002ae575b600080fd5b6200020660048036036040811015620001ef57600080fd5b50803590602001356001600160a01b0316620006a4565b005b62000206600480360360208110156200022057600080fd5b50356001600160a01b031662000879565b62000206600480360360208110156200024957600080fd5b5035620008d8565b62000206600480360360208110156200026957600080fd5b5035620009c5565b6200029a600480360360208110156200028957600080fd5b50356001600160a01b031662000aae565b604080519115158252519081900360200190f35b6200029a60048036036020811015620002c657600080fd5b50356001600160a01b031662000ac9565b6200020662000add565b6200029a600480360360e0811015620002f957600080fd5b508035906020810135906001600160a01b036040820135169060608101359060808101359060a08101359060c0013562000bc9565b6200029a600480360360208110156200034657600080fd5b503562000dc6565b6200020662000f4a565b6200036262000f60565b60408051602080825283518183015283519192839290830191858101910280838360005b83811015620003a057818101518382015260200162000386565b505050509050019250505060405180910390f35b6200029a62000fbb565b6200029a60048036036020811015620003d657600080fd5b503562000fc4565b620003fe60048036036020811015620003f657600080fd5b50356200112a565b60408051918252519081900360200190f35b62000206600480360360208110156200042857600080fd5b50356001600160a01b03166200113f565b6200029a600480360360808110156200045157600080fd5b508035906020810135906040810135906060013562001195565b6200029a600480360360208110156200048357600080fd5b503562001334565b620002066200134b565b6200020662001419565b620004bf60048036036020811015620004b757600080fd5b50356200142d565b604080516001600160a01b03909316835290151560208301528051918290030190f35b6200029a60048036036040811015620004fa57600080fd5b50803590602001356001600160a01b03166200145a565b620003626200147e565b620003fe600480360360608110156200053357600080fd5b5080359060208101359060400135620014d6565b62000567600480360360208110156200055f57600080fd5b503562001567565b604051808a8152602001896001600160a01b03166001600160a01b0316815260200188815260200187815260200186815260200185815260200184815260200180602001838152602001828103825284818151815260200191508051906020019080838360005b83811015620005e8578181015183820152602001620005ce565b50505050905090810190601f168015620006165780820380516001836020036101000a031916815260200191505b509a505050505050505050505060405180910390f35b6200029a600480360360408110156200064457600080fd5b50803590602001356200164c565b6200029a600480360360808110156200066a57600080fd5b508035906020810135906040810135906060013562001717565b620003fe600480360360208110156200069c57600080fd5b5035620018c9565b620006b8620006b2620018e8565b62000ac9565b620006f55760405162461bcd60e51b815260040180806020018281038252602e81526020018062003b83602e913960400191505060405180910390fd5b60015460ff161562000741576040805162461bcd60e51b815260206004820152601060248201526f14185d5cd8589b194e881c185d5cd95960821b604482015290519081900360640190fd5b600082905060008183604051620007589062001c73565b9182526001600160a01b03166020820152604080519182900301906000f08015801562000789573d6000803e3d6000fd5b50600085815260066020526040902085815560018101549192509015620007f7576040805162461bcd60e51b815260206004820152601960248201527f4173736f63696174656420616c72656164792065786973742100000000000000604482015290519081900360640190fd5b600780546001818101835560008390527fa66cc928b5edb82af9bd49922954155ab7b0942694bea4ce44661d9a8736c6889091019690965554818601556003810180546001600160a01b039586166001600160a01b0319918216179091556002820180549390951692169190911790925550600601805460ff19169091179055565b6200088d62000887620018e8565b62000aae565b620008ca5760405162461bcd60e51b815260040180806020018281038252603081526020018062003b536030913960400191505060405180910390fd5b620008d581620018ec565b50565b620008e662000887620018e8565b620009235760405162461bcd60e51b815260040180806020018281038252603081526020018062003b536030913960400191505060405180910390fd5b60008181526008602052604090205462000973576040805162461bcd60e51b815260206004820152600c60248201526b5152206572726f6e656f212160a01b604482015290519081900360640190fd5b60008181526008602081815260408084204281850155815180830190925283825267494e5f545255434b60c01b828401908152948690529290915251620009c1926007909201919062001c81565b5050565b620009d362000887620018e8565b62000a105760405162461bcd60e51b815260040180806020018281038252603081526020018062003b536030913960400191505060405180910390fd5b60008181526008602052604090205462000a60576040805162461bcd60e51b815260206004820152600c60248201526b5152206572726f6e656f212160a01b604482015290519081900360640190fd5b60008181526008602081815260408084204281850155815180830190925283825267149150d650d3115160c21b828401908152948690529290915251620009c1926007909201919062001c81565b600062000ac360028363ffffffff6200193616565b92915050565b600062000ac3818363ffffffff6200193616565b62000aeb620006b2620018e8565b62000b285760405162461bcd60e51b815260040180806020018281038252602e81526020018062003b83602e913960400191505060405180910390fd5b60015460ff1662000b77576040805162461bcd60e51b815260206004820152601460248201527314185d5cd8589b194e881b9bdd081c185d5cd95960621b604482015290519081900360640190fd5b6001805460ff191690557f5db9ee0a495bf2e6ff9c91a7834c1ba4fdd244a5e8aa4e537bd38aeae4b073aa62000bac620018e8565b604080516001600160a01b039092168252519081900360200190a1565b60015460009060ff161562000c18576040805162461bcd60e51b815260206004820152601060248201526f14185d5cd8589b194e881c185d5cd95960821b604482015290519081900360640190fd5b6000878152600860205260409020541562000c6e576040805162461bcd60e51b81526020600482015260116024820152705152207961207574696c697a61646f212160781b604482015290519081900360640190fd5b60606040518060400160405280600681526020016514d513d4915160d21b8152509050604051806101200160405280898152602001886001600160a01b031681526020018a815260200187815260200186815260200185815260200184815260200182815260200142815250600860008a81526020019081526020016000206000820151816000015560208201518160010160006101000a8154816001600160a01b0302191690836001600160a01b0316021790555060408201518160020155606082015181600301556080820151816004015560a0820151816005015560c0820151816006015560e082015181600701908051906020019062000d7492919062001c81565b506101009190910151600890910155505060098054600181810183556000929092527f6e1540171b6c0c960b71a7020d9f60077f6af931a8bbf590da0223dacf75c7af01879055979650505050505050565b600062000dd6620006b2620018e8565b62000e135760405162461bcd60e51b815260040180806020018281038252602e81526020018062003b83602e913960400191505060405180910390fd5b60015460ff161562000e5f576040805162461bcd60e51b815260206004820152601060248201526f14185d5cd8589b194e881c185d5cd95960821b604482015290519081900360640190fd5b6000828152600660208190526040909120015460ff1662000ec7576040805162461bcd60e51b815260206004820152601f60248201527f4173736f63696174656420697320616c72656164792064697361626c65642e00604482015290519081900360640190fd5b6000828152600660208190526040808320918201805460ff191690556002909101548151638456cb5960e01b815291516001600160a01b03909116928392638456cb59926004808301939282900301818387803b15801562000f2857600080fd5b505af115801562000f3d573d6000803e3d6000fd5b5060019695505050505050565b62000f5e62000f58620018e8565b6200199f565b565b6060600780548060200260200160405190810160405280929190818152602001828054801562000fb057602002820191906000526020600020905b81548152602001906001019080831162000f9b575b505050505090505b90565b60015460ff1690565b600062000fd4620006b2620018e8565b620010115760405162461bcd60e51b815260040180806020018281038252602e81526020018062003b83602e913960400191505060405180910390fd5b60015460ff16156200105d576040805162461bcd60e51b815260206004820152601060248201526f14185d5cd8589b194e881c185d5cd95960821b604482015290519081900360640190fd5b6000828152600660208190526040909120015460ff1615620010c6576040805162461bcd60e51b815260206004820152601e60248201527f4173736f63696174656420697320616c726561647920656e61626c65642e0000604482015290519081900360640190fd5b6000828152600660208190526040808320918201805460ff191660011790556002909101548151631fa5d41d60e11b815291516001600160a01b03909116928392633f4ba83a926004808301939282900301818387803b15801562000f2857600080fd5b60009081526004602052604090206003015490565b6200114d620006b2620018e8565b6200118a5760405162461bcd60e51b815260040180806020018281038252602e81526020018062003b83602e913960400191505060405180910390fd5b620008d581620019e9565b60015460009060ff1615620011e4576040805162461bcd60e51b815260206004820152601060248201526f14185d5cd8589b194e881c185d5cd95960821b604482015290519081900360640190fd5b620011f085336200145a565b62001242576040805162461bcd60e51b815260206004820152601960248201527f4173736f63696174656420646f65736e27742065786973742e00000000000000604482015290519081900360640190fd5b6000858152600660208190526040909120015460ff16620012a4576040805162461bcd60e51b815260206004820152601760248201527620b9b9b7b1b4b0ba32b21034b9903234b9b0b13632b21760491b604482015290519081900360640190fd5b620012b0848362001a33565b620012dc576040805162461bcd60e51b8152602060048201526000602482015290519081900360640190fd5b60008481526004602052604090206003015462001300908463ffffffff62001ab316565b6000858152600460209081526040808320600301939093558782526006905220600501805484019055506001949350505050565b600090815260046020526040902060010154151590565b62001359620006b2620018e8565b620013965760405162461bcd60e51b815260040180806020018281038252602e81526020018062003b83602e913960400191505060405180910390fd5b60015460ff1615620013e2576040805162461bcd60e51b815260206004820152601060248201526f14185d5cd8589b194e881c185d5cd95960821b604482015290519081900360640190fd5b6001805460ff1916811790557f62e78cea01bee320cd4e420270b5ea74000d11b0c9f74754ebdbfc544b05a25862000bac620018e8565b62000f5e62001427620018e8565b62001afe565b600081815260066020819052604090912060028101549101546001600160a01b039091169060ff16915091565b600091825260066020526040909120600201546001600160a01b0390811691161490565b6060600980548060200260200160405190810160405280929190818152602001828054801562000fb0576020028201919060005260206000209081548152602001906001019080831162000f9b575050505050905090565b6003546040805163e055aeeb60e01b815260048101869052602481018590526044810184905290516000926001600160a01b03169163e055aeeb916064808301926020929190829003018186803b1580156200153157600080fd5b505afa15801562001546573d6000803e3d6000fd5b505050506040513d60208110156200155d57600080fd5b5051949350505050565b6008602090815260009182526040918290208054600180830154600280850154600386015460048701546005880154600689015460078a0180548d51601f6000199b831615610100029b909b01909116979097049889018c90048c0287018c01909c52878652979a6001600160a01b03909616999398929791969095919492938301828280156200163c5780601f1062001610576101008083540402835291602001916200163c565b820191906000526020600020905b8154815290600101906020018083116200161e57829003601f168201915b5050505050908060080154905089565b60015460009060ff16156200169b576040805162461bcd60e51b815260206004820152601060248201526f14185d5cd8589b194e881c185d5cd95960821b604482015290519081900360640190fd5b6000838152600460205260409020838155600181015415620016c257600191505062000ac3565b600580546001818101835560008381527f036b6384b5eca791c62761152d0c79bb0604c104a5fb6f4eb0703f3154bb3db090920187905591548383015560028301859055600390920191909155905062000ac3565b60015460009060ff161562001766576040805162461bcd60e51b815260206004820152601060248201526f14185d5cd8589b194e881c185d5cd95960821b604482015290519081900360640190fd5b600360009054906101000a90046001600160a01b03166001600160a01b031663ffed12456040518163ffffffff1660e01b8152600401600060405180830381600087803b158015620017b757600080fd5b505af1158015620017cc573d6000803e3d6000fd5b50505050620017dc85336200145a565b62001825576040805162461bcd60e51b815260206004820152601460248201527320b9b9b7b1b4b0ba32b21037379032bc34b9ba1760611b604482015290519081900360640190fd5b6000858152600660208190526040909120015460ff1662001887576040805162461bcd60e51b815260206004820152601760248201527620b9b9b7b1b4b0ba32b21034b9903234b9b0b13632b21760491b604482015290519081900360640190fd5b6200189384836200164c565b50505060009283526006602090815260408085206004908101805485019055938552929052912060030180549091019055600190565b60098181548110620018d757fe5b600091825260209091200154905081565b3390565b620018ff60028263ffffffff62001b4816565b6040516001600160a01b038216907fee42164429e67869687bd6bb89c4b935a8c14abe726ab3d88e5a2246f7c395ca90600090a250565b60006001600160a01b0382166200197f5760405162461bcd60e51b815260040180806020018281038252602281526020018062003b316022913960400191505060405180910390fd5b506001600160a01b03166000908152602091909152604090205460ff1690565b620019b260028263ffffffff62001b6d16565b6040516001600160a01b038216907f41586003b49136ca903b6942a62bf8f82fc92b3e532556aad10ed2c91b2259a790600090a250565b620019fc60008263ffffffff62001b4816565b6040516001600160a01b038216907f44d6d25963f097ad14f29f06854a01f575648a1ef82f30e562ccd3889717e33990600090a250565b600062001a408362001334565b62001a87576040805162461bcd60e51b8152602060048201526012602482015271155cd95c88191bd95cdb89dd08195e1a5cdd60721b604482015290519081900360640190fd5b60008381526004602052604090206002015482141562001aaa5750600162000ac3565b50600092915050565b600062001af783836040518060400160405280601e81526020017f536166654d6174683a207375627472616374696f6e206f766572666c6f77000081525062001bd8565b9392505050565b62001b1160008263ffffffff62001b6d16565b6040516001600160a01b038216907fa3b62bc36326052d97ea62d63c3d60308ed4c3ea8ac079dd8499f1e9c4f80c0f90600090a250565b6001600160a01b0316600090815260209190915260409020805460ff19166001179055565b62001b79828262001936565b62001bb65760405162461bcd60e51b815260040180806020018281038252602181526020018062003b106021913960400191505060405180910390fd5b6001600160a01b0316600090815260209190915260409020805460ff19169055565b6000818484111562001c6b5760405162461bcd60e51b81526004018080602001828103825283818151815260200191508051906020019080838360005b8381101562001c2f57818101518382015260200162001c15565b50505050905090810190601f16801562001c5d5780820380516001836020036101000a031916815260200191505b509250505060405180910390fd5b505050900390565b611dec8062001d2483390190565b828054600181600116156101000203166002900490600052602060002090601f016020900481019282601f1062001cc457805160ff191683800117855562001cf4565b8280016001018555821562001cf4579182015b8281111562001cf457825182559160200191906001019062001cd7565b5062001d0292915062001d06565b5090565b62000fb891905b8082111562001d02576000815560010162001d0d56fe608060405260405162001dec38038062001dec833981810160405260408110156200002957600080fd5b50805160209091015162000058620000496001600160e01b03620000c916565b6001600160e01b03620000cd16565b6001805460ff1916905562000088620000796001600160e01b03620000c916565b6001600160e01b036200011f16565b600b829055600d8054336001600160a01b031991821617909155601080549091166001600160a01b038316179055620000c18162000171565b5050620002d0565b3390565b620000e88160006200020560201b620018ff1790919060201c565b6040516001600160a01b038216907f2db8f49e9d09fbba330ecc87b42d650f16bdabefeab9a35300dbf34bd8d4ec3190600090a250565b6200013a8160026200020560201b620018ff1790919060201c565b6040516001600160a01b038216907f44d6d25963f097ad14f29f06854a01f575648a1ef82f30e562ccd3889717e33990600090a250565b62000197620001886001600160e01b03620000c916565b6001600160e01b036200022a16565b620001ee576040517f08c379a000000000000000000000000000000000000000000000000000000000815260040180806020018281038252602e81526020018062001dbe602e913960400191505060405180910390fd5b62000202816001600160e01b036200011f16565b50565b6001600160a01b0316600090815260209190915260409020805460ff19166001179055565b6000620002478260026200024d60201b620016421790919060201c565b92915050565b60006001600160a01b038216620002b0576040517f08c379a000000000000000000000000000000000000000000000000000000000815260040180806020018281038252602281526020018062001d9c6022913960400191505060405180910390fd5b506001600160a01b03166000908152602091909152604090205460ff1690565b611abc80620002e06000396000f3fe608060405234801561001057600080fd5b50600436106101735760003560e01c806381530c04116100de578063acb2777d11610097578063c2fefe8311610071578063c2fefe83146104b8578063e6afb898146104f8578063ef91492a14610500578063f6216f031461052657610173565b8063acb2777d1461043a578063b6e9c2ac14610466578063bc91b4cf1461048357610173565b806381530c04146103a45780638456cb59146103cd5780638bad0c0a146103d55780639abb2195146103dd578063a2ed01dc14610403578063a5ff72b61461041d57610173565b8063649b6e3d11610130578063649b6e3d146102d85780636ffc3903146102fe578063704802751461030657806374fdd53c1461032c5780637af17ee91461035857806380d22fc61461037e57610173565b80630b5a06261461017857806324d7806c1461020e5780633f4ba83a1461024857806348e5235c146102525780635c975abb146102aa57806361e4258e146102b2575b600080fd5b61019e6004803603602081101561018e57600080fd5b50356001600160a01b0316610570565b604080519d8e5260208e019c909c528c8c019a909a5260608c019890985260808b019690965260a08a019490945260c089019290925260e088015261010087015261012086015261014085015215156101608401526001600160a01b031661018083015251908190036101a00190f35b6102346004803603602081101561022457600080fd5b50356001600160a01b03166105e2565b604080519115158252519081900360200190f35b6102506105fb565b005b61025a6106e4565b60408051602080825283518183015283519192839290830191858101910280838360005b8381101561029657818101518382015260200161027e565b505050509050019250505060405180910390f35b610234610746565b610234600480360360208110156102c857600080fd5b50356001600160a01b031661074f565b610234600480360360208110156102ee57600080fd5b50356001600160a01b03166107ce565b6102506107e0565b6102506004803603602081101561031c57600080fd5b50356001600160a01b03166107f2565b6102506004803603604081101561034257600080fd5b50803590602001356001600160a01b0316610849565b6102506004803603602081101561036e57600080fd5b50356001600160a01b03166108c6565b6102506004803603602081101561039457600080fd5b50356001600160a01b03166109af565b610234600480360360608110156103ba57600080fd5b50803590602081013590604001356109fe565b610250610b48565b610250610c0e565b610250600480360360208110156103f357600080fd5b50356001600160a01b0316610c1e565b61040b610d03565b60408051918252519081900360200190f35b6102346004803603602081101561043357600080fd5b5035610d09565b6102506004803603604081101561045057600080fd5b50803590602001356001600160a01b0316610ddc565b61040b6004803603602081101561047c57600080fd5b50356110e2565b610234600480360360a081101561049957600080fd5b5080359060208101359060408101359060608101359060800135611160565b6104c0611453565b604080519788526020880196909652868601949094526060860192909252608085015260a084015260c0830152519081900360e00190f35b61040b611471565b610508611477565b60408051938452602084019290925282820152519081900360600190f35b610234600480360360e081101561053c57600080fd5b508035906020810135906001600160a01b036040820135169060608101359060808101359060a08101359060c00135611485565b600e60205260009081526040902080546001820154600283015460038401546004850154600586015460068701546007880154600889015460098a0154600a8b0154600b909b0154999a98999798969795969495939492939192909160ff81169061010090046001600160a01b03168d565b60006105f560028363ffffffff61164216565b92915050565b61060b6106066116a9565b6107ce565b6106465760405162461bcd60e51b815260040180806020018281038252602c815260200180611a0c602c913960400191505060405180910390fd5b60015460ff16610694576040805162461bcd60e51b815260206004820152601460248201527314185d5cd8589b194e881b9bdd081c185d5cd95960621b604482015290519081900360640190fd5b6001805460ff191690557f5db9ee0a495bf2e6ff9c91a7834c1ba4fdd244a5e8aa4e537bd38aeae4b073aa6106c76116a9565b604080516001600160a01b039092168252519081900360200190a1565b6060600f80548060200260200160405190810160405280929190818152602001828054801561073c57602002820191906000526020600020905b81546001600160a01b0316815260019091019060200180831161071e575b5050505050905090565b60015460ff1690565b60006001600160a01b0382166107ac576040805162461bcd60e51b815260206004820152601e60248201527f436f6e7461696e65722061646472657373206973206e6f742076616c69640000604482015290519081900360640190fd5b506001600160a01b03166000908152600e60205260409020600b015460ff1690565b60006105f5818363ffffffff61164216565b6107f06107eb6116a9565b6116ad565b565b6108026107fd6116a9565b6105e2565b61083d5760405162461bcd60e51b815260040180806020018281038252602e815260200180611a5a602e913960400191505060405180910390fd5b610846816116f5565b50565b6001600160a01b0381166000908152600e60205260409020600b015460ff166108b9576040805162461bcd60e51b815260206004820152601860248201527f436f6e7461696e6572206973206e6f7420416374697665210000000000000000604482015290519081900360640190fd5b6108c28261173d565b5050565b60015460ff1615610911576040805162461bcd60e51b815260206004820152601060248201526f14185d5cd8589b194e881c185d5cd95960821b604482015290519081900360640190fd5b6001600160a01b0381166000908152600e60205260409020600b015460ff1615610982576040805162461bcd60e51b815260206004820152601860248201527f436f6e7461696e657220616c726561647920656e61626c650000000000000000604482015290519081900360640190fd5b6001600160a01b03166000908152600e6020526040902042600a820155600b01805460ff19166001179055565b6109ba6106066116a9565b6109f55760405162461bcd60e51b815260040180806020018281038252602c815260200180611a0c602c913960400191505060405180910390fd5b61084681611748565b6000610a0b6107fd6116a9565b610a465760405162461bcd60e51b815260040180806020018281038252602e815260200180611a5a602e913960400191505060405180910390fd5b60015460ff1615610a91576040805162461bcd60e51b815260206004820152601060248201526f14185d5cd8589b194e881c185d5cd95960821b604482015290519081900360640190fd5b600d54600b54604080516303a6f85b60e51b81526004810192909252602482018790526044820185905260648201869052516000926001600160a01b0316916374df0b6091608480830192602092919082900301818787803b158015610af657600080fd5b505af1158015610b0a573d6000803e3d6000fd5b505050506040513d6020811015610b2057600080fd5b505190508015610b3b57505060058054820190556001610b41565b60009150505b9392505050565b610b536106066116a9565b610b8e5760405162461bcd60e51b815260040180806020018281038252602c815260200180611a0c602c913960400191505060405180910390fd5b60015460ff1615610bd9576040805162461bcd60e51b815260206004820152601060248201526f14185d5cd8589b194e881c185d5cd95960821b604482015290519081900360640190fd5b6001805460ff1916811790557f62e78cea01bee320cd4e420270b5ea74000d11b0c9f74754ebdbfc544b05a2586106c76116a9565b6107f0610c196116a9565b611790565b60015460ff1615610c69576040805162461bcd60e51b815260206004820152601060248201526f14185d5cd8589b194e881c185d5cd95960821b604482015290519081900360640190fd5b6001600160a01b0381166000908152600e60205260409020600b015460ff16610cd9576040805162461bcd60e51b815260206004820152601760248201527f436f6e7461696e6572206973206e6f7420656e61626c65000000000000000000604482015290519081900360640190fd5b6001600160a01b03166000908152600e6020526040902042600a820155600b01805460ff19169055565b60035490565b6000610d166106066116a9565b610d515760405162461bcd60e51b815260040180806020018281038252602c815260200180611a0c602c913960400191505060405180910390fd5b60015460ff1615610d9c576040805162461bcd60e51b815260206004820152601060248201526f14185d5cd8589b194e881c185d5cd95960821b604482015290519081900360640190fd5b610dc9826040518060600160405280602e8152602001611948602e9139600554919063ffffffff6117d816565b6005555060068054820190556001919050565b610de76107fd6116a9565b610e225760405162461bcd60e51b815260040180806020018281038252602e815260200180611a5a602e913960400191505060405180910390fd5b60015460ff1615610e6d576040805162461bcd60e51b815260206004820152601060248201526f14185d5cd8589b194e881c185d5cd95960821b604482015290519081900360640190fd5b6001600160a01b038116610eb25760405162461bcd60e51b81526004018080602001828103825260298152602001806119c26029913960400191505060405180910390fd5b6001600160a01b0381166000908152600e602052604090205415610f16576040805162461bcd60e51b81526020600482015260166024820152754164647265737320616c72656164792065786973742160501b604482015290519081900360640190fd5b600c60008154809291906001019190505550604051806101a00160405280600c54815260200183815260200160008152602001600081526020016000815260200160008152602001600081526020016000815260200160008152602001428152602001428152602001600115158152602001601060009054906101000a90046001600160a01b03166001600160a01b0316815250600e6000836001600160a01b03166001600160a01b03168152602001908152602001600020600082015181600001556020820151816001015560408201518160020155606082015181600301556080820151816004015560a0820151816005015560c0820151816006015560e082015181600701556101008201518160080155610120820151816009015561014082015181600a015561016082015181600b0160006101000a81548160ff02191690831515021790555061018082015181600b0160016101000a8154816001600160a01b0302191690836001600160a01b03160217905550905050600f8190806001815401808255809150509060018203906000526020600020016000909192909190916101000a8154816001600160a01b0302191690836001600160a01b03160217905550505050565b600d546040805163363f8aa160e11b81526004810184905290516000926001600160a01b031691636c7f1542916024808301926020929190829003018186803b15801561112e57600080fd5b505afa158015611142573d6000803e3d6000fd5b505050506040513d602081101561115857600080fd5b505192915050565b336000908152600e60205260408120600901546111ae5760405162461bcd60e51b81526004018080602001828103825260238152602001806119256023913960400191505060405180910390fd5b336000908152600e60205260409020600b015460ff166111ff5760405162461bcd60e51b815260040180806020018281038252602481526020018061199e6024913960400191505060405180910390fd5b60015460ff161561124a576040805162461bcd60e51b815260206004820152601060248201526f14185d5cd8589b194e881c185d5cd95960821b604482015290519081900360640190fd5b600084840183018061128d5760405162461bcd60e51b81526004018080602001828103825260288152602001806119766028913960400191505060405180910390fd5b336000908152600e602052604090206005810180546001019055600281018054830190556003810180548301905560068101805488019055600781018054870190556008018054850190556112e386868661186f565b6112f0848688010161188d565b600d546040805163e055aeeb60e01b815260048101899052602481018890526044810187905290516001600160a01b039092169163e055aeeb91606480820192602092909190829003018186803b15801561134a57600080fd5b505afa15801561135e573d6000803e3d6000fd5b505050506040513d602081101561137457600080fd5b5051600d54600b546040805163ee0c96c560e01b81526004810192909252602482018c905260448201849052606482018b9052519294506000926001600160a01b039092169163ee0c96c59160848082019260209290919082900301818787803b1580156113e157600080fd5b505af11580156113f5573d6000803e3d6000fd5b505050506040513d602081101561140b57600080fd5b50519050801561144257336000908152600e602052604090206004018054840190556114368361173d565b6001935050505061144a565b600093505050505b95945050505050565b60035460055460045460065460075460085460095490919293949596565b600b5490565b600754600854600954909192565b336000908152600e60205260408120600901546114d35760405162461bcd60e51b81526004018080602001828103825260238152602001806119256023913960400191505060405180910390fd5b336000908152600e60205260409020600b015460ff166115245760405162461bcd60e51b815260040180806020018281038252602481526020018061199e6024913960400191505060405180910390fd5b600d54600b54604080516308932f5960e31b81526004810192909252602482018a90526001600160a01b038981166044840152606483018990526084830188905260a4830187905260c48301869052905160009391909116916344997ac89160e480830192602092919082900301818787803b1580156115a357600080fd5b505af11580156115b7573d6000803e3d6000fd5b505050506040513d60208110156115cd57600080fd5b50519050801561163157336000908152600e6020526040902060068101546007820154600890920154611600929061186f565b5050336000908152600e60205260408120600681018290556007810182905560088101829055600201556001611637565b60009150505b979650505050505050565b60006001600160a01b0382166116895760405162461bcd60e51b8152600401808060200182810382526022815260200180611a386022913960400191505060405180910390fd5b506001600160a01b03166000908152602091909152604090205460ff1690565b3390565b6116be60008263ffffffff61189816565b6040516001600160a01b038216907fc7c063934ec148f1763101df56fc7d2b7c439d07ce6e340e8dbf55ff15cabe9890600090a250565b61170660028263ffffffff6118ff16565b6040516001600160a01b038216907f44d6d25963f097ad14f29f06854a01f575648a1ef82f30e562ccd3889717e33990600090a250565b600380549091019055565b61175960008263ffffffff6118ff16565b6040516001600160a01b038216907f2db8f49e9d09fbba330ecc87b42d650f16bdabefeab9a35300dbf34bd8d4ec3190600090a250565b6117a160028263ffffffff61189816565b6040516001600160a01b038216907fa3b62bc36326052d97ea62d63c3d60308ed4c3ea8ac079dd8499f1e9c4f80c0f90600090a250565b600081848411156118675760405162461bcd60e51b81526004018080602001828103825283818151815260200191508051906020019080838360005b8381101561182c578181015183820152602001611814565b50505050905090810190601f1680156118595780820380516001836020036101000a031916815260200191505b509250505060405180910390fd5b505050900390565b60078054909301909255600880549091019055600980549091019055565b600480549091019055565b6118a28282611642565b6118dd5760405162461bcd60e51b81526004018080602001828103825260218152602001806119eb6021913960400191505060405180910390fd5b6001600160a01b0316600090815260209190915260409020805460ff19169055565b6001600160a01b0316600090815260209190915260409020805460ff1916600117905556fe5468652073656e646572206973206e6f7420612076616c696420636f6e7461696e6572636c65616e6564506f696e74733a207472616e7366657220616d6f756e7420657863656564732062616c616e63654e756d626572206f66206974656d73206973206e6f742067726561746572207468616e207a65726f5468652073656e646572206973206e6f74206120636f6e7461696e657220656e61626c65436f6e7461696e6572204e616d6520616e64204164647265732073686f756c642062652066696c6c21526f6c65733a206163636f756e7420646f6573206e6f74206861766520726f6c654d6e6772526f6c653a2063616c6c657220646f6573206e6f74206861766520746865204d6e677220726f6c65526f6c65733a206163636f756e7420697320746865207a65726f206164647265737341646d696e526f6c653a2063616c6c657220646f6573206e6f742068617665207468652041646d696e20726f6c65a265627a7a72315820eff36032b2abf226ec3533bbf41736f9aae6149b80b52b8fb06476fcfcc28fc364736f6c634300050c0032526f6c65733a206163636f756e7420697320746865207a65726f206164647265737341646d696e526f6c653a2063616c6c657220646f6573206e6f742068617665207468652041646d696e20726f6c65526f6c65733a206163636f756e7420646f6573206e6f74206861766520726f6c65526f6c65733a206163636f756e7420697320746865207a65726f2061646472657373547261636572526f6c653a2063616c6c657220646f6573206e6f742068617665207468652054726163657220726f6c6541646d696e526f6c653a2063616c6c657220646f6573206e6f742068617665207468652041646d696e20726f6c65a265627a7a723158202f84337fcfc7de468fd9453e0240f6626fbf931724fd7be6d02624f2a6a774b664736f6c634300050c0032",
  "source": "pragma solidity ^0.5.1;\n\nimport \"./Context.sol\";\nimport \"./Roles.sol\";\nimport \"./TraceRole.sol\";\n//import \"./MngrRole.sol\";\nimport \"./Pausable.sol\";\n//import \"./Ownable.sol\";\nimport \"./Associated_FC.sol\";\nimport \"./CustomOracle.sol\";\n\nimport \"../node_modules/openzeppelin-solidity/contracts/math/SafeMath.sol\";\n\n\ncontract Deres is Pausable, TracerRole {\n\n\tusing SafeMath for uint;\n\n\tCustomOracle customOracle;// Referencia del contrato principal, para conocer su Address\n\t\n    struct User {\n\t\tbytes32 hashName;\n\t\tuint index; //Indice para el control del alta de usuarios\n\t\tbytes32 hashedSecret; //Hash256 de la Palabra secreta del usuario.\n\t\tuint balance; //Puntos del usuario\n\t}\n\n\tstruct Associated {\n\t\tbytes32 hashName;\n\t\tuint index; //Indice para el control del alta de asociados\n\t\taddress contract_address; //Contrato del asociado\n\t\taddress associated_address; //Direccin del asociado //QUIZAS NO HAGA FALTA\n\t\tuint generatedPoints; //Puntos generados  //QUIZAS NO HAGA FALTA\n\t\tuint exchangedPoints; //Puntos canjeados  //QUIZAS NO HAGA FALTA\n\t\tbool enable;\n\t}\n\n\tmapping (bytes32 => User) private _users;\n    bytes32[] internal userList;\n\n\tmapping (bytes32 => Associated) private _associated;\n\tbytes32[] internal associatedList;\n\n\tconstructor(address payable customOracle_address) public {\n\t\t//_owner = msg.sender;\n\t\tcustomOracle = CustomOracle(customOracle_address);\n\t\t//customOracle.addAdmin(address(this));\n\t\t\n    }\n\n/*\n    function getOwner() public view returns (address){\n        return msg.sender;\n    }\n\n    function isOwner() public view returns (bool){\n        return (msg.sender == _owner);\n    }\n*/\n\n    //----------------------------------------------------------------------------------------------------\n    //------------------    ASSOCIATED    ----------------------------------------------------------------\n    //----------------------------------------------------------------------------------------------------\n    // Solo el owner ser capaz de aadir asociados\n\n    function addAssociated(bytes32 hashName, address _associated_address) public onlyAdmin whenNotPaused  {\n\t\t\n        bytes32 hashAssociatedName = hashName;\n        Associated_FC associated_contract = new Associated_FC(hashAssociatedName, _associated_address);\n\n\n\t\tAssociated storage associated = _associated[hashName];\n\t\tassociated.hashName = hashName;\n\n\t\trequire(!(associated.index > 0), \"Associated already exist!\");\n\t\t\n\t\tassociatedList.push(hashName);\n\t\tuint associatedListIndex = associatedList.length - 1;\n\t\tassociated.index = associatedListIndex + 1;\n\t\tassociated.associated_address = _associated_address;\n\t\tassociated.contract_address = address(associated_contract);\n\t\tassociated.enable = true;\n\t\t\n\t}\n\n\n    function getAssociatedList() public view returns (bytes32[] memory) {\n\t\treturn associatedList;\n\t}\n\n    function getAssociated(bytes32 hashName ) public view returns (address contract_address, bool enable) {\n        return (_associated[hashName].contract_address, _associated[hashName].enable);\n    }\n\n\tfunction isAssociated(bytes32 hashName, address associated_contract_address) public view returns (bool) {\n\t\treturn  _associated[hashName].contract_address == associated_contract_address;\n\t}\n\n\tfunction disableAssociated(bytes32 hashName) public onlyAdmin whenNotPaused returns (bool) {\n\n\n\t\trequire(_associated[hashName].enable, \"Associated is already disabled.\");\n\t\t_associated[hashName].enable = false;\n\n\t\t\n\t\tAssociated_FC associated_contract;\n\t\tassociated_contract = Associated_FC(_associated[hashName].contract_address);\n\t\tassociated_contract.pause();\n\t\t\n\t\t\n\t\treturn true;\n\t }\n\n\t function enableAssociated(bytes32 hashName) public onlyAdmin whenNotPaused returns (bool) {\n\n\t\trequire(!_associated[hashName].enable, \"Associated is already enabled.\");\n\t\t_associated[hashName].enable = true;\n\n\t\t\n\t\tAssociated_FC associated_contract;\n\t\tassociated_contract = Associated_FC(_associated[hashName].contract_address);\n\t\tassociated_contract.unpause();\n\t\t\n\n\t\treturn true;\n\t}\n\t//----------------------------------------------------------------------------------------------------\n\n\n\t//----------------------------------------------------------------------------------------------------\n    //------------------    USERS    ---------------------------------------------------------------------\n    //----------------------------------------------------------------------------------------------------\n    // Cuandop se aade un usuario se guarda un hashSecret como cdigo hash256 de la palabra secreta del usuario\n\tfunction addUser(bytes32 hashName, bytes32 hashedSecret) public whenNotPaused returns (bool){\n\n\t\tUser storage user = _users[hashName];\n\t\tuser.hashName = hashName;\n\n\t\tif(user.index > 0){ // El usuario existe si devuelve true\n\t\t\t return true;\n\t\t}else {\n\t\t\t userList.push(hashName);\n\t\t\t uint userListIndex = userList.length - 1;\n\t\t\t user.index = userListIndex + 1;\n\t\t\t user.hashedSecret = hashedSecret;\n\t\t\t user.balance = 0;\n\n\t\t\t return true;\n\t\t}\n\t}\n\n\tfunction isUser(bytes32 user_hashcode) public view returns (bool) {\n\t\treturn _users[user_hashcode].index > 0;\n\t}\n\n\tfunction balanceOf(bytes32 user_hashcode) public view returns (uint256) {\n         return _users[user_hashcode].balance;\n    }\n\n\t/*****************************************************************************************************************/\n\n/*\n\n\tuint public prevBlock = 0;\n\tuint constant BLOCKS_PERIOD = 6000;\n\tfunction checkNextProcess() public onlyAdmin  {\n\n\t\tif (prevBlock + BLOCKS_PERIOD < block.number) {\n\n\t\t\tprevBlock = block.number;\n\n\t\t\tcustomOracle.newEthEurRateRequest(1);\n\t\t\tcustomOracle.newUsdEurRateRequest(1);\n\t\t\tcustomOracle.newPetPriceRequest();\n\t\t\tcustomOracle.newAluminumPriceRequest();\n\t\t}\n\t}\n\n*/\n\t/*****************************************************************************************************************/\n\n    // Llamada realizada desde el contato del Asociado.\n\tfunction updateUserBalance(bytes32 hashAssociatedName, bytes32 hashName, uint generatedPoints, bytes32 hashedSecret)\n\tpublic whenNotPaused returns (bool){\n\n\t\tcustomOracle.checkNextProcess();\n\n\t    require(isAssociated(hashAssociatedName,msg.sender), \"Associated no exist.\"); //Solo pude llamarlo la Direccin de Contrato del Asociado.\n        require(_associated[hashAssociatedName].enable, \"Associated is disabled.\"); // El asociado debe estar activado\n\n        addUser(hashName, hashedSecret); // name y word son opcionales. Solo son necesarios si el usuario no existe\n\n        _associated[hashAssociatedName].generatedPoints += generatedPoints;\n        _users[hashName].balance += generatedPoints;\n\n        return true;\n    }\n\n\t//----------------------------------------------------------------------------------------------------\n\t\n\t\n\t//----------------------------------------------------------------------------------------------------\n    //------------------    EXCHANGE   -------------------------------------------------------------------\n    //----------------------------------------------------------------------------------------------------\n\n\t//JM: El calculo de los puntos por pack se hace cada vez que un usuario mete en el contenedor??\n\tfunction calculatePoints(uint _pack1, uint _pack2, uint _pack3) public view returns (uint) {\n\n\t\treturn customOracle.calculatePoints(_pack1, _pack2, _pack3);\n\t}\n\n    function checkUser(bytes32 user_hashcode, bytes32 hashedSecret) internal view returns (bool){\n        require(isUser(user_hashcode), \"User doesn't exist\");\n        if (hashedSecret == _users[user_hashcode].hashedSecret) {\n            return true;\n        }\n        return false;\n    }\n\n    //Solo el contrato del asociado puede llamar al mtodo exchange\n    function exchangePoints(bytes32 hashAssociatedName, bytes32 user_hashcode, uint amount, bytes32 hashedSecret) public whenNotPaused returns (bool){\n\n        require(isAssociated(hashAssociatedName, msg.sender), \"Associated doesn't exist.\"); //Solo pude llamarlo la Direccin de Asociado.\n        require(_associated[hashAssociatedName].enable, \"Associated is disabled.\"); // El asociado debe estar activado\n        require(checkUser(user_hashcode, hashedSecret),'');\n\n        _users[user_hashcode].balance = _users[user_hashcode].balance.sub(amount);\n        //_associated[hashAssociatedName].exchangedPoints.add(amount);  //REVISAR SI HACE FALTA /////////\n\t\t_associated[hashAssociatedName].exchangedPoints += amount;  //REVISAR SI HACE FALTA /////////\n\n        return true;\n    }\n\n\n\t//Monitorizacion de las Bolsas que se han usado en los contenedores\n\t//Desde la app del contenedor por cada bolsa se genera un QR que se le pasa al usuario al final de meter las botellas\n    //Identificacin, Monitorizacin y Cambio de Estado de las bolsas de los contenedores\n\n    mapping (bytes32 => QR_Bag) public listQR_Bags; //*  Lista de BOlsas con QRs en la Aplicacin\n    bytes32[] public _QRBagList;\n\n\t //Modelo de Datos de una bolsa del Contenedor identificada con un QR que tendr el usuario que recicle\n    struct QR_Bag{\n        bytes32 qr;\n        address associated;\n        bytes32 hashAssociatedName;\n        bytes32 nameRef;//\n        uint item_1;\n        uint item_2;\n        uint item_3;\n        string status; //String o enum\n        uint date;//no haria falta\n\n\n    }\n\n\t//Solo el contrato del asociado puede llamar al mtodo addRecicledBag, habria que meter modificador onlyAdmin\n\t/* \n      * @dev recycledBagQR : Desde el asociado se le pasa la info al Principal para que inicialize el estado\n      * contrato Pricipal le asigna inicialemnet estado \"STORED\" \n      * @param _hashAssociatedName Hash del asociado\n      * @param _QR Identificador que se le asigna a la bolsa\n\t  * @param _associated Address del container\n\t  * @param _nameRef Address del container\n\t  * @param _item_1 Item 1\n\t  * @param _item_2 Item 2\n\t  * @param _item_3 Item 3\n      * \n      */ \n    function addRecicledBag(bytes32 _hashAssociatedName, bytes32 _QR, address _associated, bytes32 _nameRef,  uint _item_1, uint _item_2, uint _item_3 ) public whenNotPaused returns (bool){\n        \n\t\trequire(!(listQR_Bags[_QR].qr != \"\"), \"QR ya utilizado!!\");\n\n\t\tstring memory _status = \"STORED\" ;//Estado inicial de la Bolsa, \n\n\t\t//Aadir Bolsa al mapping\n        listQR_Bags[_QR] = QR_Bag(_QR, _associated, _hashAssociatedName, _nameRef,  _item_1, _item_2, _item_3, _status, now);\n\t\t_QRBagList.push(_QR);\n\n\t\treturn true;\n\n        \n    }\n\n\n\t /* \n      * @dev getQRBagList :Devuelve la lista de bolsas QR para poder usar luego el mapping listQR_Bags y poder monitorizarlas\n      * @return bytes32[] Array de QRs\n      * \n      */ \n     function getQRBagList() public view returns (bytes32[] memory) {\n\t\treturn _QRBagList;\n\t}\n\n \t// Cambiar el estado de la bolsa TRansportistas\n     function updatedQRBagTruck(bytes32 _QR) public onlyTracer   { //Solo puede llamarle las compaias de Basura\n        require(listQR_Bags[_QR].qr != \"\", \"QR erroneo!!\");\n\n        listQR_Bags[_QR].date = now;\n\t\tlistQR_Bags[_QR].status = \"IN_TRUCK\";\n\t}\n\n\n\t// Cambiar el estado de la bolsa Fabricas Reciclado\n     function updatedQRBagFacfory(bytes32 _QR) public onlyTracer   { //Solo puede llamarle las fabricas de reciclaje\n        require(listQR_Bags[_QR].qr != \"\", \"QR erroneo!!\");\n\n        listQR_Bags[_QR].date = now;\n\t\tlistQR_Bags[_QR].status = \"RECYCLED\";\n\t}\n\n}\n",
  "sourcePath": "/home/cesar/master/pfm/dapp-principal/truffle/contracts/Deres.sol",
  "compiler": {
    "name": "solc",
    "version": "0.5.12+commit.7709ece9.Emscripten.clang"
  },
  "schemaVersion": "3.0.19",
  "updatedAt": "2020-01-04T10:47:15.911Z",
  "networkType": "ethereum",
  "devdoc": {
    "methods": {
      "pause()": {
        "details": "Called by a pauser to pause, triggers stopped state."
      },
      "paused()": {
        "details": "Returns true if the contract is paused, and false otherwise."
      },
      "unpause()": {
        "details": "Called by a pauser to unpause, returns to normal state."
      }
    }
  },
  "userdoc": {
    "methods": {
      "updateUserBalance(bytes32,bytes32,uint256,bytes32)": {
        "notice": "**************************************************************************************************************"
      }
    }
  }
}